{
  "contractName": "BWLBadgeFactory",
  "abi": [
    {
      "inputs": [],
      "stateMutability": "nonpayable",
      "type": "constructor"
    },
    {
      "anonymous": false,
      "inputs": [
        {
          "indexed": true,
          "internalType": "address",
          "name": "account",
          "type": "address"
        },
        {
          "indexed": true,
          "internalType": "address",
          "name": "operator",
          "type": "address"
        },
        {
          "indexed": false,
          "internalType": "bool",
          "name": "approved",
          "type": "bool"
        }
      ],
      "name": "ApprovalForAll",
      "type": "event"
    },
    {
      "anonymous": false,
      "inputs": [
        {
          "indexed": true,
          "internalType": "address",
          "name": "previousOwner",
          "type": "address"
        },
        {
          "indexed": true,
          "internalType": "address",
          "name": "newOwner",
          "type": "address"
        }
      ],
      "name": "OwnershipTransferred",
      "type": "event"
    },
    {
      "anonymous": false,
      "inputs": [
        {
          "indexed": true,
          "internalType": "address",
          "name": "operator",
          "type": "address"
        },
        {
          "indexed": true,
          "internalType": "address",
          "name": "from",
          "type": "address"
        },
        {
          "indexed": true,
          "internalType": "address",
          "name": "to",
          "type": "address"
        },
        {
          "indexed": false,
          "internalType": "uint256[]",
          "name": "ids",
          "type": "uint256[]"
        },
        {
          "indexed": false,
          "internalType": "uint256[]",
          "name": "values",
          "type": "uint256[]"
        }
      ],
      "name": "TransferBatch",
      "type": "event"
    },
    {
      "anonymous": false,
      "inputs": [
        {
          "indexed": true,
          "internalType": "address",
          "name": "operator",
          "type": "address"
        },
        {
          "indexed": true,
          "internalType": "address",
          "name": "from",
          "type": "address"
        },
        {
          "indexed": true,
          "internalType": "address",
          "name": "to",
          "type": "address"
        },
        {
          "indexed": false,
          "internalType": "uint256",
          "name": "id",
          "type": "uint256"
        },
        {
          "indexed": false,
          "internalType": "uint256",
          "name": "value",
          "type": "uint256"
        }
      ],
      "name": "TransferSingle",
      "type": "event"
    },
    {
      "anonymous": false,
      "inputs": [
        {
          "indexed": false,
          "internalType": "string",
          "name": "value",
          "type": "string"
        },
        {
          "indexed": true,
          "internalType": "uint256",
          "name": "id",
          "type": "uint256"
        }
      ],
      "name": "URI",
      "type": "event"
    },
    {
      "inputs": [
        {
          "internalType": "address",
          "name": "account",
          "type": "address"
        },
        {
          "internalType": "uint256",
          "name": "id",
          "type": "uint256"
        }
      ],
      "name": "balanceOf",
      "outputs": [
        {
          "internalType": "uint256",
          "name": "",
          "type": "uint256"
        }
      ],
      "stateMutability": "view",
      "type": "function",
      "constant": true
    },
    {
      "inputs": [
        {
          "internalType": "address[]",
          "name": "accounts",
          "type": "address[]"
        },
        {
          "internalType": "uint256[]",
          "name": "ids",
          "type": "uint256[]"
        }
      ],
      "name": "balanceOfBatch",
      "outputs": [
        {
          "internalType": "uint256[]",
          "name": "",
          "type": "uint256[]"
        }
      ],
      "stateMutability": "view",
      "type": "function",
      "constant": true
    },
    {
      "inputs": [],
      "name": "count",
      "outputs": [
        {
          "internalType": "uint256",
          "name": "",
          "type": "uint256"
        }
      ],
      "stateMutability": "view",
      "type": "function",
      "constant": true
    },
    {
      "inputs": [
        {
          "internalType": "address",
          "name": "account",
          "type": "address"
        },
        {
          "internalType": "address",
          "name": "operator",
          "type": "address"
        }
      ],
      "name": "isApprovedForAll",
      "outputs": [
        {
          "internalType": "bool",
          "name": "",
          "type": "bool"
        }
      ],
      "stateMutability": "view",
      "type": "function",
      "constant": true
    },
    {
      "inputs": [],
      "name": "name",
      "outputs": [
        {
          "internalType": "string",
          "name": "",
          "type": "string"
        }
      ],
      "stateMutability": "view",
      "type": "function",
      "constant": true
    },
    {
      "inputs": [],
      "name": "owner",
      "outputs": [
        {
          "internalType": "address",
          "name": "",
          "type": "address"
        }
      ],
      "stateMutability": "view",
      "type": "function",
      "constant": true
    },
    {
      "inputs": [],
      "name": "renounceOwnership",
      "outputs": [],
      "stateMutability": "nonpayable",
      "type": "function"
    },
    {
      "inputs": [
        {
          "internalType": "address",
          "name": "from",
          "type": "address"
        },
        {
          "internalType": "address",
          "name": "to",
          "type": "address"
        },
        {
          "internalType": "uint256[]",
          "name": "ids",
          "type": "uint256[]"
        },
        {
          "internalType": "uint256[]",
          "name": "amounts",
          "type": "uint256[]"
        },
        {
          "internalType": "bytes",
          "name": "data",
          "type": "bytes"
        }
      ],
      "name": "safeBatchTransferFrom",
      "outputs": [],
      "stateMutability": "nonpayable",
      "type": "function"
    },
    {
      "inputs": [
        {
          "internalType": "address",
          "name": "from",
          "type": "address"
        },
        {
          "internalType": "address",
          "name": "to",
          "type": "address"
        },
        {
          "internalType": "uint256",
          "name": "id",
          "type": "uint256"
        },
        {
          "internalType": "uint256",
          "name": "amount",
          "type": "uint256"
        },
        {
          "internalType": "bytes",
          "name": "data",
          "type": "bytes"
        }
      ],
      "name": "safeTransferFrom",
      "outputs": [],
      "stateMutability": "nonpayable",
      "type": "function"
    },
    {
      "inputs": [
        {
          "internalType": "address",
          "name": "operator",
          "type": "address"
        },
        {
          "internalType": "bool",
          "name": "approved",
          "type": "bool"
        }
      ],
      "name": "setApprovalForAll",
      "outputs": [],
      "stateMutability": "nonpayable",
      "type": "function"
    },
    {
      "inputs": [
        {
          "internalType": "bytes4",
          "name": "interfaceId",
          "type": "bytes4"
        }
      ],
      "name": "supportsInterface",
      "outputs": [
        {
          "internalType": "bool",
          "name": "",
          "type": "bool"
        }
      ],
      "stateMutability": "view",
      "type": "function",
      "constant": true
    },
    {
      "inputs": [],
      "name": "symbol",
      "outputs": [
        {
          "internalType": "string",
          "name": "",
          "type": "string"
        }
      ],
      "stateMutability": "view",
      "type": "function",
      "constant": true
    },
    {
      "inputs": [
        {
          "internalType": "uint256",
          "name": "",
          "type": "uint256"
        }
      ],
      "name": "tokenURI",
      "outputs": [
        {
          "internalType": "string",
          "name": "",
          "type": "string"
        }
      ],
      "stateMutability": "view",
      "type": "function",
      "constant": true
    },
    {
      "inputs": [
        {
          "internalType": "address",
          "name": "newOwner",
          "type": "address"
        }
      ],
      "name": "transferOwnership",
      "outputs": [],
      "stateMutability": "nonpayable",
      "type": "function"
    },
    {
      "inputs": [
        {
          "internalType": "address",
          "name": "_to",
          "type": "address"
        },
        {
          "internalType": "uint256",
          "name": "_id",
          "type": "uint256"
        },
        {
          "internalType": "uint256",
          "name": "_amount",
          "type": "uint256"
        },
        {
          "internalType": "string",
          "name": "_uri",
          "type": "string"
        }
      ],
      "name": "mintWithUri",
      "outputs": [],
      "stateMutability": "nonpayable",
      "type": "function"
    },
    {
      "inputs": [
        {
          "internalType": "address",
          "name": "_to",
          "type": "address"
        },
        {
          "internalType": "uint256[]",
          "name": "_ids",
          "type": "uint256[]"
        },
        {
          "internalType": "uint256[]",
          "name": "_amounts",
          "type": "uint256[]"
        },
        {
          "internalType": "string[]",
          "name": "_uris",
          "type": "string[]"
        }
      ],
      "name": "mintBatchWithUri",
      "outputs": [],
      "stateMutability": "nonpayable",
      "type": "function"
    },
    {
      "inputs": [
        {
          "internalType": "uint256",
          "name": "_id",
          "type": "uint256"
        },
        {
          "internalType": "uint256",
          "name": "_amount",
          "type": "uint256"
        }
      ],
      "name": "burn",
      "outputs": [],
      "stateMutability": "nonpayable",
      "type": "function"
    },
    {
      "inputs": [
        {
          "internalType": "uint256[]",
          "name": "_ids",
          "type": "uint256[]"
        },
        {
          "internalType": "uint256[]",
          "name": "_amounts",
          "type": "uint256[]"
        }
      ],
      "name": "burnBatch",
      "outputs": [],
      "stateMutability": "nonpayable",
      "type": "function"
    },
    {
      "inputs": [
        {
          "internalType": "address",
          "name": "_from",
          "type": "address"
        },
        {
          "internalType": "uint256[]",
          "name": "_burnIds",
          "type": "uint256[]"
        },
        {
          "internalType": "uint256[]",
          "name": "_burnAmounts",
          "type": "uint256[]"
        },
        {
          "internalType": "uint256[]",
          "name": "_mintIds",
          "type": "uint256[]"
        },
        {
          "internalType": "uint256[]",
          "name": "_mintAmounts",
          "type": "uint256[]"
        }
      ],
      "name": "burnForMint",
      "outputs": [],
      "stateMutability": "nonpayable",
      "type": "function"
    },
    {
      "inputs": [
        {
          "internalType": "uint256",
          "name": "_id",
          "type": "uint256"
        },
        {
          "internalType": "string",
          "name": "_uri",
          "type": "string"
        }
      ],
      "name": "setURI",
      "outputs": [],
      "stateMutability": "nonpayable",
      "type": "function"
    },
    {
      "inputs": [],
      "name": "totalSupply",
      "outputs": [
        {
          "internalType": "uint256",
          "name": "",
          "type": "uint256"
        }
      ],
      "stateMutability": "view",
      "type": "function",
      "constant": true
    },
    {
      "inputs": [
        {
          "internalType": "uint256",
          "name": "_id",
          "type": "uint256"
        }
      ],
      "name": "uri",
      "outputs": [
        {
          "internalType": "string",
          "name": "",
          "type": "string"
        }
      ],
      "stateMutability": "view",
      "type": "function",
      "constant": true
    }
  ],
  "bytecode": "0x60806040523480156200001157600080fd5b50604051806020016040528060008152506200003381620000fe60201b60201c565b5062000054620000486200011a60201b60201c565b6200012260201b60201c565b60006004819055506040518060400160405280600881526020017f42574c4974656d7300000000000000000000000000000000000000000000000081525060059080519060200190620000a9929190620001e8565b506040518060400160405280600481526020017f42574c490000000000000000000000000000000000000000000000000000000081525060069080519060200190620000f7929190620001e8565b50620002fd565b806002908051906020019062000116929190620001e8565b5050565b600033905090565b6000600360009054906101000a900473ffffffffffffffffffffffffffffffffffffffff16905081600360006101000a81548173ffffffffffffffffffffffffffffffffffffffff021916908373ffffffffffffffffffffffffffffffffffffffff1602179055508173ffffffffffffffffffffffffffffffffffffffff168173ffffffffffffffffffffffffffffffffffffffff167f8be0079c531659141344cd1fd0a4f28419497f9722a3daafe3b4186f6b6457e060405160405180910390a35050565b828054620001f69062000298565b90600052602060002090601f0160209004810192826200021a576000855562000266565b82601f106200023557805160ff191683800117855562000266565b8280016001018555821562000266579182015b828111156200026557825182559160200191906001019062000248565b5b50905062000275919062000279565b5090565b5b80821115620002945760008160009055506001016200027a565b5090565b60006002820490506001821680620002b157607f821691505b60208210811415620002c857620002c7620002ce565b5b50919050565b7f4e487b7100000000000000000000000000000000000000000000000000000000600052602260045260246000fd5b613f93806200030d6000396000f3fe608060405234801561001057600080fd5b50600436106101415760003560e01c8063862440e2116100b8578063c3082ef91161007c578063c3082ef91461034e578063c87b56dd1461036a578063e0ba74a61461039a578063e985e9c5146103b6578063f242432a146103e6578063f2fde38b1461040257610141565b8063862440e2146102be5780638da5cb5b146102da57806395d89b41146102f8578063a22cb46514610316578063b390c0ab1461033257610141565b806318160ddd1161010a57806318160ddd146102125780632eb2c2d6146102305780634e1273f41461024c578063510f41041461027c578063715018a61461029857806383ca4b6f146102a257610141565b8062fdd58e1461014657806301ffc9a71461017657806306661abd146101a657806306fdde03146101c45780630e89341c146101e2575b600080fd5b610160600480360381019061015b9190612d1f565b61041e565b60405161016d91906135fa565b60405180910390f35b610190600480360381019061018b9190612eae565b6104e7565b60405161019d91906133fd565b60405180910390f35b6101ae6105c9565b6040516101bb91906135fa565b60405180910390f35b6101cc6105cf565b6040516101d99190613418565b60405180910390f35b6101fc60048036038101906101f79190612f00565b61065d565b6040516102099190613418565b60405180910390f35b61021a610702565b60405161022791906135fa565b60405180910390f35b61024a60048036038101906102459190612a13565b61070c565b005b61026660048036038101906102619190612dd6565b6107ad565b60405161027391906133a4565b60405180910390f35b61029660048036038101906102919190612c0c565b61095e565b005b6102a0610993565b005b6102bc60048036038101906102b79190612e42565b6109a7565b005b6102d860048036038101906102d39190612f29565b6109b6565b005b6102e2610a1a565b6040516102ef91906132c7565b60405180910390f35b610300610a44565b60405161030d9190613418565b60405180910390f35b610330600480360381019061032b9190612ce3565b610ad2565b005b61034c60048036038101906103479190612f7d565b610ae8565b005b61036860048036038101906103639190612b61565b610af7565b005b610384600480360381019061037f9190612f00565b610bda565b6040516103919190613418565b60405180910390f35b6103b460048036038101906103af9190612d5b565b610c7a565b005b6103d060048036038101906103cb91906129d7565b610cbd565b6040516103dd91906133fd565b60405180910390f35b61040060048036038101906103fb9190612ad2565b610d51565b005b61041c600480360381019061041791906129ae565b610df2565b005b60008073ffffffffffffffffffffffffffffffffffffffff168373ffffffffffffffffffffffffffffffffffffffff16141561048f576040517f08c379a0000000000000000000000000000000000000000000000000000000008152600401610486906134da565b60405180910390fd5b60008083815260200190815260200160002060008473ffffffffffffffffffffffffffffffffffffffff1673ffffffffffffffffffffffffffffffffffffffff16815260200190815260200160002054905092915050565b60007fd9b67a26000000000000000000000000000000000000000000000000000000007bffffffffffffffffffffffffffffffffffffffffffffffffffffffff1916827bffffffffffffffffffffffffffffffffffffffffffffffffffffffff191614806105b257507f0e89341c000000000000000000000000000000000000000000000000000000007bffffffffffffffffffffffffffffffffffffffffffffffffffffffff1916827bffffffffffffffffffffffffffffffffffffffffffffffffffffffff1916145b806105c257506105c182610e76565b5b9050919050565b60045481565b600580546105dc906138c6565b80601f0160208091040260200160405190810160405280929190818152602001828054610608906138c6565b80156106555780601f1061062a57610100808354040283529160200191610655565b820191906000526020600020905b81548152906001019060200180831161063857829003601f168201915b505050505081565b606060076000838152602001908152602001600020805461067d906138c6565b80601f01602080910402602001604051908101604052809291908181526020018280546106a9906138c6565b80156106f65780601f106106cb576101008083540402835291602001916106f6565b820191906000526020600020905b8154815290600101906020018083116106d957829003601f168201915b50505050509050919050565b6000600454905090565b610714610ee0565b73ffffffffffffffffffffffffffffffffffffffff168573ffffffffffffffffffffffffffffffffffffffff16148061075a575061075985610754610ee0565b610cbd565b5b610799576040517f08c379a00000000000000000000000000000000000000000000000000000000081526004016107909061345a565b60405180910390fd5b6107a68585858585610ee8565b5050505050565b606081518351146107f3576040517f08c379a00000000000000000000000000000000000000000000000000000000081526004016107ea9061359a565b60405180910390fd5b6000835167ffffffffffffffff811115610836577f4e487b7100000000000000000000000000000000000000000000000000000000600052604160045260246000fd5b6040519080825280602002602001820160405280156108645781602001602082028036833780820191505090505b50905060005b8451811015610953576108fd8582815181106108af577f4e487b7100000000000000000000000000000000000000000000000000000000600052603260045260246000fd5b60200260200101518583815181106108f0577f4e487b7100000000000000000000000000000000000000000000000000000000600052603260045260246000fd5b602002602001015161041e565b828281518110610936577f4e487b7100000000000000000000000000000000000000000000000000000000600052603260045260246000fd5b6020026020010181815250508061094c90613929565b905061086a565b508091505092915050565b610966611256565b6109718585856112d4565b61098c858383604051806020016040528060008152506115ef565b5050505050565b61099b611256565b6109a56000611868565b565b6109b23383836112d4565b5050565b806007600084815260200190815260200160002090805190602001906109dd9291906125f6565b50817f6bb7ff708619ba0610cba295a58592e0451dee2622938c8755667688daf3529b82604051610a0e9190613418565b60405180910390a25050565b6000600360009054906101000a900473ffffffffffffffffffffffffffffffffffffffff16905090565b60068054610a51906138c6565b80601f0160208091040260200160405190810160405280929190818152602001828054610a7d906138c6565b8015610aca5780601f10610a9f57610100808354040283529160200191610aca565b820191906000526020600020905b815481529060010190602001808311610aad57829003601f168201915b505050505081565b610ae4610add610ee0565b838361192e565b5050565b610af3338383611a9b565b5050565b610b12848484604051806020016040528060008152506115ef565b60005b8351811015610bd357610ba8848281518110610b5a577f4e487b7100000000000000000000000000000000000000000000000000000000600052603260045260246000fd5b6020026020010151838381518110610b9b577f4e487b7100000000000000000000000000000000000000000000000000000000600052603260045260246000fd5b60200260200101516109b6565b60046000815480929190610bbb90613929565b91905055508080610bcb90613929565b915050610b15565b5050505050565b60076020528060005260406000206000915090508054610bf9906138c6565b80601f0160208091040260200160405190810160405280929190818152602001828054610c25906138c6565b8015610c725780601f10610c4757610100808354040283529160200191610c72565b820191906000526020600020905b815481529060010190602001808311610c5557829003601f168201915b505050505081565b610c9584848460405180602001604052806000815250611ce2565b610c9f83826109b6565b60046000815480929190610cb290613929565b919050555050505050565b6000600160008473ffffffffffffffffffffffffffffffffffffffff1673ffffffffffffffffffffffffffffffffffffffff16815260200190815260200160002060008373ffffffffffffffffffffffffffffffffffffffff1673ffffffffffffffffffffffffffffffffffffffff16815260200190815260200160002060009054906101000a900460ff16905092915050565b610d59610ee0565b73ffffffffffffffffffffffffffffffffffffffff168573ffffffffffffffffffffffffffffffffffffffff161480610d9f5750610d9e85610d99610ee0565b610cbd565b5b610dde576040517f08c379a0000000000000000000000000000000000000000000000000000000008152600401610dd59061345a565b60405180910390fd5b610deb8585858585611e93565b5050505050565b610dfa611256565b600073ffffffffffffffffffffffffffffffffffffffff168173ffffffffffffffffffffffffffffffffffffffff161415610e6a576040517f08c379a0000000000000000000000000000000000000000000000000000000008152600401610e619061349a565b60405180910390fd5b610e7381611868565b50565b60007f01ffc9a7000000000000000000000000000000000000000000000000000000007bffffffffffffffffffffffffffffffffffffffffffffffffffffffff1916827bffffffffffffffffffffffffffffffffffffffffffffffffffffffff1916149050919050565b600033905090565b8151835114610f2c576040517f08c379a0000000000000000000000000000000000000000000000000000000008152600401610f23906135ba565b60405180910390fd5b600073ffffffffffffffffffffffffffffffffffffffff168473ffffffffffffffffffffffffffffffffffffffff161415610f9c576040517f08c379a0000000000000000000000000000000000000000000000000000000008152600401610f93906134fa565b60405180910390fd5b6000610fa6610ee0565b9050610fb681878787878761212f565b60005b84518110156111b3576000858281518110610ffd577f4e487b7100000000000000000000000000000000000000000000000000000000600052603260045260246000fd5b602002602001015190506000858381518110611042577f4e487b7100000000000000000000000000000000000000000000000000000000600052603260045260246000fd5b60200260200101519050600080600084815260200190815260200160002060008b73ffffffffffffffffffffffffffffffffffffffff1673ffffffffffffffffffffffffffffffffffffffff168152602001908152602001600020549050818110156110e3576040517f08c379a00000000000000000000000000000000000000000000000000000000081526004016110da9061353a565b60405180910390fd5b81810360008085815260200190815260200160002060008c73ffffffffffffffffffffffffffffffffffffffff1673ffffffffffffffffffffffffffffffffffffffff168152602001908152602001600020819055508160008085815260200190815260200160002060008b73ffffffffffffffffffffffffffffffffffffffff1673ffffffffffffffffffffffffffffffffffffffff168152602001908152602001600020600082825461119891906137ba565b92505081905550505050806111ac90613929565b9050610fb9565b508473ffffffffffffffffffffffffffffffffffffffff168673ffffffffffffffffffffffffffffffffffffffff168273ffffffffffffffffffffffffffffffffffffffff167f4a39dc06d4c0dbc64b70af90fd698a233a518aa5d07e595d983b8c0526c8f7fb878760405161122a9291906133c6565b60405180910390a4611240818787878787612137565b61124e81878787878761213f565b505050505050565b61125e610ee0565b73ffffffffffffffffffffffffffffffffffffffff1661127c610a1a565b73ffffffffffffffffffffffffffffffffffffffff16146112d2576040517f08c379a00000000000000000000000000000000000000000000000000000000081526004016112c99061355a565b60405180910390fd5b565b600073ffffffffffffffffffffffffffffffffffffffff168373ffffffffffffffffffffffffffffffffffffffff161415611344576040517f08c379a000000000000000000000000000000000000000000000000000000000815260040161133b9061351a565b60405180910390fd5b8051825114611388576040517f08c379a000000000000000000000000000000000000000000000000000000000815260040161137f906135ba565b60405180910390fd5b6000611392610ee0565b90506113b28185600086866040518060200160405280600081525061212f565b60005b835181101561154b5760008482815181106113f9577f4e487b7100000000000000000000000000000000000000000000000000000000600052603260045260246000fd5b60200260200101519050600084838151811061143e577f4e487b7100000000000000000000000000000000000000000000000000000000600052603260045260246000fd5b60200260200101519050600080600084815260200190815260200160002060008973ffffffffffffffffffffffffffffffffffffffff1673ffffffffffffffffffffffffffffffffffffffff168152602001908152602001600020549050818110156114df576040517f08c379a00000000000000000000000000000000000000000000000000000000081526004016114d6906134ba565b60405180910390fd5b81810360008085815260200190815260200160002060008a73ffffffffffffffffffffffffffffffffffffffff1673ffffffffffffffffffffffffffffffffffffffff16815260200190815260200160002081905550505050808061154390613929565b9150506113b5565b50600073ffffffffffffffffffffffffffffffffffffffff168473ffffffffffffffffffffffffffffffffffffffff168273ffffffffffffffffffffffffffffffffffffffff167f4a39dc06d4c0dbc64b70af90fd698a233a518aa5d07e595d983b8c0526c8f7fb86866040516115c39291906133c6565b60405180910390a46115e981856000868660405180602001604052806000815250612137565b50505050565b600073ffffffffffffffffffffffffffffffffffffffff168473ffffffffffffffffffffffffffffffffffffffff16141561165f576040517f08c379a0000000000000000000000000000000000000000000000000000000008152600401611656906135da565b60405180910390fd5b81518351146116a3576040517f08c379a000000000000000000000000000000000000000000000000000000000815260040161169a906135ba565b60405180910390fd5b60006116ad610ee0565b90506116be8160008787878761212f565b60005b84518110156117c357838181518110611703577f4e487b7100000000000000000000000000000000000000000000000000000000600052603260045260246000fd5b6020026020010151600080878481518110611747577f4e487b7100000000000000000000000000000000000000000000000000000000600052603260045260246000fd5b6020026020010151815260200190815260200160002060008873ffffffffffffffffffffffffffffffffffffffff1673ffffffffffffffffffffffffffffffffffffffff16815260200190815260200160002060008282546117a991906137ba565b9250508190555080806117bb90613929565b9150506116c1565b508473ffffffffffffffffffffffffffffffffffffffff16600073ffffffffffffffffffffffffffffffffffffffff168273ffffffffffffffffffffffffffffffffffffffff167f4a39dc06d4c0dbc64b70af90fd698a233a518aa5d07e595d983b8c0526c8f7fb878760405161183b9291906133c6565b60405180910390a461185281600087878787612137565b6118618160008787878761213f565b5050505050565b6000600360009054906101000a900473ffffffffffffffffffffffffffffffffffffffff16905081600360006101000a81548173ffffffffffffffffffffffffffffffffffffffff021916908373ffffffffffffffffffffffffffffffffffffffff1602179055508173ffffffffffffffffffffffffffffffffffffffff168173ffffffffffffffffffffffffffffffffffffffff167f8be0079c531659141344cd1fd0a4f28419497f9722a3daafe3b4186f6b6457e060405160405180910390a35050565b8173ffffffffffffffffffffffffffffffffffffffff168373ffffffffffffffffffffffffffffffffffffffff16141561199d576040517f08c379a00000000000000000000000000000000000000000000000000000000081526004016119949061357a565b60405180910390fd5b80600160008573ffffffffffffffffffffffffffffffffffffffff1673ffffffffffffffffffffffffffffffffffffffff16815260200190815260200160002060008473ffffffffffffffffffffffffffffffffffffffff1673ffffffffffffffffffffffffffffffffffffffff16815260200190815260200160002060006101000a81548160ff0219169083151502179055508173ffffffffffffffffffffffffffffffffffffffff168373ffffffffffffffffffffffffffffffffffffffff167f17307eab39ab6107e8899845ad3d59bd9653f200f220920489ca2b5937696c3183604051611a8e91906133fd565b60405180910390a3505050565b600073ffffffffffffffffffffffffffffffffffffffff168373ffffffffffffffffffffffffffffffffffffffff161415611b0b576040517f08c379a0000000000000000000000000000000000000000000000000000000008152600401611b029061351a565b60405180910390fd5b6000611b15610ee0565b90506000611b2284612326565b90506000611b2f84612326565b9050611b4f8387600085856040518060200160405280600081525061212f565b600080600087815260200190815260200160002060008873ffffffffffffffffffffffffffffffffffffffff1673ffffffffffffffffffffffffffffffffffffffff16815260200190815260200160002054905084811015611be6576040517f08c379a0000000000000000000000000000000000000000000000000000000008152600401611bdd906134ba565b60405180910390fd5b84810360008088815260200190815260200160002060008973ffffffffffffffffffffffffffffffffffffffff1673ffffffffffffffffffffffffffffffffffffffff16815260200190815260200160002081905550600073ffffffffffffffffffffffffffffffffffffffff168773ffffffffffffffffffffffffffffffffffffffff168573ffffffffffffffffffffffffffffffffffffffff167fc3d58168c5ae7397731d063d5bbf3d657854427343f4c083240f7aacaa2d0f628989604051611cb3929190613615565b60405180910390a4611cd984886000868660405180602001604052806000815250612137565b50505050505050565b600073ffffffffffffffffffffffffffffffffffffffff168473ffffffffffffffffffffffffffffffffffffffff161415611d52576040517f08c379a0000000000000000000000000000000000000000000000000000000008152600401611d49906135da565b60405180910390fd5b6000611d5c610ee0565b90506000611d6985612326565b90506000611d7685612326565b9050611d878360008985858961212f565b8460008088815260200190815260200160002060008973ffffffffffffffffffffffffffffffffffffffff1673ffffffffffffffffffffffffffffffffffffffff1681526020019081526020016000206000828254611de691906137ba565b925050819055508673ffffffffffffffffffffffffffffffffffffffff16600073ffffffffffffffffffffffffffffffffffffffff168473ffffffffffffffffffffffffffffffffffffffff167fc3d58168c5ae7397731d063d5bbf3d657854427343f4c083240f7aacaa2d0f628989604051611e64929190613615565b60405180910390a4611e7b83600089858589612137565b611e8a836000898989896123ec565b50505050505050565b600073ffffffffffffffffffffffffffffffffffffffff168473ffffffffffffffffffffffffffffffffffffffff161415611f03576040517f08c379a0000000000000000000000000000000000000000000000000000000008152600401611efa906134fa565b60405180910390fd5b6000611f0d610ee0565b90506000611f1a85612326565b90506000611f2785612326565b9050611f3783898985858961212f565b600080600088815260200190815260200160002060008a73ffffffffffffffffffffffffffffffffffffffff1673ffffffffffffffffffffffffffffffffffffffff16815260200190815260200160002054905085811015611fce576040517f08c379a0000000000000000000000000000000000000000000000000000000008152600401611fc59061353a565b60405180910390fd5b85810360008089815260200190815260200160002060008b73ffffffffffffffffffffffffffffffffffffffff1673ffffffffffffffffffffffffffffffffffffffff168152602001908152602001600020819055508560008089815260200190815260200160002060008a73ffffffffffffffffffffffffffffffffffffffff1673ffffffffffffffffffffffffffffffffffffffff168152602001908152602001600020600082825461208391906137ba565b925050819055508773ffffffffffffffffffffffffffffffffffffffff168973ffffffffffffffffffffffffffffffffffffffff168573ffffffffffffffffffffffffffffffffffffffff167fc3d58168c5ae7397731d063d5bbf3d657854427343f4c083240f7aacaa2d0f628a8a604051612100929190613615565b60405180910390a4612116848a8a86868a612137565b612124848a8a8a8a8a6123ec565b505050505050505050565b505050505050565b505050505050565b61215e8473ffffffffffffffffffffffffffffffffffffffff166125d3565b1561231e578373ffffffffffffffffffffffffffffffffffffffff1663bc197c8187878686866040518663ffffffff1660e01b81526004016121a49594939291906132e2565b602060405180830381600087803b1580156121be57600080fd5b505af19250505080156121ef57506040513d601f19601f820116820180604052508101906121ec9190612ed7565b60015b612295576121fb6139ff565b806308c379a014156122585750612210613e6b565b8061221b575061225a565b806040517f08c379a000000000000000000000000000000000000000000000000000000000815260040161224f9190613418565b60405180910390fd5b505b6040517f08c379a000000000000000000000000000000000000000000000000000000000815260040161228c9061343a565b60405180910390fd5b63bc197c8160e01b7bffffffffffffffffffffffffffffffffffffffffffffffffffffffff1916817bffffffffffffffffffffffffffffffffffffffffffffffffffffffff19161461231c576040517f08c379a00000000000000000000000000000000000000000000000000000000081526004016123139061347a565b60405180910390fd5b505b505050505050565b60606000600167ffffffffffffffff81111561236b577f4e487b7100000000000000000000000000000000000000000000000000000000600052604160045260246000fd5b6040519080825280602002602001820160405280156123995781602001602082028036833780820191505090505b50905082816000815181106123d7577f4e487b7100000000000000000000000000000000000000000000000000000000600052603260045260246000fd5b60200260200101818152505080915050919050565b61240b8473ffffffffffffffffffffffffffffffffffffffff166125d3565b156125cb578373ffffffffffffffffffffffffffffffffffffffff1663f23a6e6187878686866040518663ffffffff1660e01b815260040161245195949392919061334a565b602060405180830381600087803b15801561246b57600080fd5b505af192505050801561249c57506040513d601f19601f820116820180604052508101906124999190612ed7565b60015b612542576124a86139ff565b806308c379a0141561250557506124bd613e6b565b806124c85750612507565b806040517f08c379a00000000000000000000000000000000000000000000000000000000081526004016124fc9190613418565b60405180910390fd5b505b6040517f08c379a00000000000000000000000000000000000000000000000000000000081526004016125399061343a565b60405180910390fd5b63f23a6e6160e01b7bffffffffffffffffffffffffffffffffffffffffffffffffffffffff1916817bffffffffffffffffffffffffffffffffffffffffffffffffffffffff1916146125c9576040517f08c379a00000000000000000000000000000000000000000000000000000000081526004016125c09061347a565b60405180910390fd5b505b505050505050565b6000808273ffffffffffffffffffffffffffffffffffffffff163b119050919050565b828054612602906138c6565b90600052602060002090601f016020900481019282612624576000855561266b565b82601f1061263d57805160ff191683800117855561266b565b8280016001018555821561266b579182015b8281111561266a57825182559160200191906001019061264f565b5b509050612678919061267c565b5090565b5b8082111561269557600081600090555060010161267d565b5090565b60006126ac6126a784613663565b61363e565b905080838252602082019050828560208602820111156126cb57600080fd5b60005b858110156126fb57816126e18882612873565b8452602084019350602083019250506001810190506126ce565b5050509392505050565b60006127186127138461368f565b61363e565b9050808382526020820190508285602086028201111561273757600080fd5b60005b8581101561278157813567ffffffffffffffff81111561275957600080fd5b808601612766898261296f565b8552602085019450602084019350505060018101905061273a565b5050509392505050565b600061279e612799846136bb565b61363e565b905080838252602082019050828560208602820111156127bd57600080fd5b60005b858110156127ed57816127d38882612999565b8452602084019350602083019250506001810190506127c0565b5050509392505050565b600061280a612805846136e7565b61363e565b90508281526020810184848401111561282257600080fd5b61282d848285613884565b509392505050565b600061284861284384613718565b61363e565b90508281526020810184848401111561286057600080fd5b61286b848285613884565b509392505050565b60008135905061288281613f01565b92915050565b600082601f83011261289957600080fd5b81356128a9848260208601612699565b91505092915050565b600082601f8301126128c357600080fd5b81356128d3848260208601612705565b91505092915050565b600082601f8301126128ed57600080fd5b81356128fd84826020860161278b565b91505092915050565b60008135905061291581613f18565b92915050565b60008135905061292a81613f2f565b92915050565b60008151905061293f81613f2f565b92915050565b600082601f83011261295657600080fd5b81356129668482602086016127f7565b91505092915050565b600082601f83011261298057600080fd5b8135612990848260208601612835565b91505092915050565b6000813590506129a881613f46565b92915050565b6000602082840312156129c057600080fd5b60006129ce84828501612873565b91505092915050565b600080604083850312156129ea57600080fd5b60006129f885828601612873565b9250506020612a0985828601612873565b9150509250929050565b600080600080600060a08688031215612a2b57600080fd5b6000612a3988828901612873565b9550506020612a4a88828901612873565b945050604086013567ffffffffffffffff811115612a6757600080fd5b612a73888289016128dc565b935050606086013567ffffffffffffffff811115612a9057600080fd5b612a9c888289016128dc565b925050608086013567ffffffffffffffff811115612ab957600080fd5b612ac588828901612945565b9150509295509295909350565b600080600080600060a08688031215612aea57600080fd5b6000612af888828901612873565b9550506020612b0988828901612873565b9450506040612b1a88828901612999565b9350506060612b2b88828901612999565b925050608086013567ffffffffffffffff811115612b4857600080fd5b612b5488828901612945565b9150509295509295909350565b60008060008060808587031215612b7757600080fd5b6000612b8587828801612873565b945050602085013567ffffffffffffffff811115612ba257600080fd5b612bae878288016128dc565b935050604085013567ffffffffffffffff811115612bcb57600080fd5b612bd7878288016128dc565b925050606085013567ffffffffffffffff811115612bf457600080fd5b612c00878288016128b2565b91505092959194509250565b600080600080600060a08688031215612c2457600080fd5b6000612c3288828901612873565b955050602086013567ffffffffffffffff811115612c4f57600080fd5b612c5b888289016128dc565b945050604086013567ffffffffffffffff811115612c7857600080fd5b612c84888289016128dc565b935050606086013567ffffffffffffffff811115612ca157600080fd5b612cad888289016128dc565b925050608086013567ffffffffffffffff811115612cca57600080fd5b612cd6888289016128dc565b9150509295509295909350565b60008060408385031215612cf657600080fd5b6000612d0485828601612873565b9250506020612d1585828601612906565b9150509250929050565b60008060408385031215612d3257600080fd5b6000612d4085828601612873565b9250506020612d5185828601612999565b9150509250929050565b60008060008060808587031215612d7157600080fd5b6000612d7f87828801612873565b9450506020612d9087828801612999565b9350506040612da187828801612999565b925050606085013567ffffffffffffffff811115612dbe57600080fd5b612dca8782880161296f565b91505092959194509250565b60008060408385031215612de957600080fd5b600083013567ffffffffffffffff811115612e0357600080fd5b612e0f85828601612888565b925050602083013567ffffffffffffffff811115612e2c57600080fd5b612e38858286016128dc565b9150509250929050565b60008060408385031215612e5557600080fd5b600083013567ffffffffffffffff811115612e6f57600080fd5b612e7b858286016128dc565b925050602083013567ffffffffffffffff811115612e9857600080fd5b612ea4858286016128dc565b9150509250929050565b600060208284031215612ec057600080fd5b6000612ece8482850161291b565b91505092915050565b600060208284031215612ee957600080fd5b6000612ef784828501612930565b91505092915050565b600060208284031215612f1257600080fd5b6000612f2084828501612999565b91505092915050565b60008060408385031215612f3c57600080fd5b6000612f4a85828601612999565b925050602083013567ffffffffffffffff811115612f6757600080fd5b612f738582860161296f565b9150509250929050565b60008060408385031215612f9057600080fd5b6000612f9e85828601612999565b9250506020612faf85828601612999565b9150509250929050565b6000612fc583836132a9565b60208301905092915050565b612fda81613810565b82525050565b6000612feb82613759565b612ff58185613787565b935061300083613749565b8060005b838110156130315781516130188882612fb9565b97506130238361377a565b925050600181019050613004565b5085935050505092915050565b61304781613822565b82525050565b600061305882613764565b6130628185613798565b9350613072818560208601613893565b61307b81613a21565b840191505092915050565b60006130918261376f565b61309b81856137a9565b93506130ab818560208601613893565b6130b481613a21565b840191505092915050565b60006130cc6034836137a9565b91506130d782613a3f565b604082019050919050565b60006130ef602f836137a9565b91506130fa82613a8e565b604082019050919050565b60006131126028836137a9565b915061311d82613add565b604082019050919050565b60006131356026836137a9565b915061314082613b2c565b604082019050919050565b60006131586024836137a9565b915061316382613b7b565b604082019050919050565b600061317b602a836137a9565b915061318682613bca565b604082019050919050565b600061319e6025836137a9565b91506131a982613c19565b604082019050919050565b60006131c16023836137a9565b91506131cc82613c68565b604082019050919050565b60006131e4602a836137a9565b91506131ef82613cb7565b604082019050919050565b60006132076020836137a9565b915061321282613d06565b602082019050919050565b600061322a6029836137a9565b915061323582613d2f565b604082019050919050565b600061324d6029836137a9565b915061325882613d7e565b604082019050919050565b60006132706028836137a9565b915061327b82613dcd565b604082019050919050565b60006132936021836137a9565b915061329e82613e1c565b604082019050919050565b6132b28161387a565b82525050565b6132c18161387a565b82525050565b60006020820190506132dc6000830184612fd1565b92915050565b600060a0820190506132f76000830188612fd1565b6133046020830187612fd1565b81810360408301526133168186612fe0565b9050818103606083015261332a8185612fe0565b9050818103608083015261333e818461304d565b90509695505050505050565b600060a08201905061335f6000830188612fd1565b61336c6020830187612fd1565b61337960408301866132b8565b61338660608301856132b8565b8181036080830152613398818461304d565b90509695505050505050565b600060208201905081810360008301526133be8184612fe0565b905092915050565b600060408201905081810360008301526133e08185612fe0565b905081810360208301526133f48184612fe0565b90509392505050565b6000602082019050613412600083018461303e565b92915050565b600060208201905081810360008301526134328184613086565b905092915050565b60006020820190508181036000830152613453816130bf565b9050919050565b60006020820190508181036000830152613473816130e2565b9050919050565b6000602082019050818103600083015261349381613105565b9050919050565b600060208201905081810360008301526134b381613128565b9050919050565b600060208201905081810360008301526134d38161314b565b9050919050565b600060208201905081810360008301526134f38161316e565b9050919050565b6000602082019050818103600083015261351381613191565b9050919050565b60006020820190508181036000830152613533816131b4565b9050919050565b60006020820190508181036000830152613553816131d7565b9050919050565b60006020820190508181036000830152613573816131fa565b9050919050565b600060208201905081810360008301526135938161321d565b9050919050565b600060208201905081810360008301526135b381613240565b9050919050565b600060208201905081810360008301526135d381613263565b9050919050565b600060208201905081810360008301526135f381613286565b9050919050565b600060208201905061360f60008301846132b8565b92915050565b600060408201905061362a60008301856132b8565b61363760208301846132b8565b9392505050565b6000613648613659565b905061365482826138f8565b919050565b6000604051905090565b600067ffffffffffffffff82111561367e5761367d6139d0565b5b602082029050602081019050919050565b600067ffffffffffffffff8211156136aa576136a96139d0565b5b602082029050602081019050919050565b600067ffffffffffffffff8211156136d6576136d56139d0565b5b602082029050602081019050919050565b600067ffffffffffffffff821115613702576137016139d0565b5b61370b82613a21565b9050602081019050919050565b600067ffffffffffffffff821115613733576137326139d0565b5b61373c82613a21565b9050602081019050919050565b6000819050602082019050919050565b600081519050919050565b600081519050919050565b600081519050919050565b6000602082019050919050565b600082825260208201905092915050565b600082825260208201905092915050565b600082825260208201905092915050565b60006137c58261387a565b91506137d08361387a565b9250827fffffffffffffffffffffffffffffffffffffffffffffffffffffffffffffffff0382111561380557613804613972565b5b828201905092915050565b600061381b8261385a565b9050919050565b60008115159050919050565b60007fffffffff0000000000000000000000000000000000000000000000000000000082169050919050565b600073ffffffffffffffffffffffffffffffffffffffff82169050919050565b6000819050919050565b82818337600083830152505050565b60005b838110156138b1578082015181840152602081019050613896565b838111156138c0576000848401525b50505050565b600060028204905060018216806138de57607f821691505b602082108114156138f2576138f16139a1565b5b50919050565b61390182613a21565b810181811067ffffffffffffffff821117156139205761391f6139d0565b5b80604052505050565b60006139348261387a565b91507fffffffffffffffffffffffffffffffffffffffffffffffffffffffffffffffff82141561396757613966613972565b5b600182019050919050565b7f4e487b7100000000000000000000000000000000000000000000000000000000600052601160045260246000fd5b7f4e487b7100000000000000000000000000000000000000000000000000000000600052602260045260246000fd5b7f4e487b7100000000000000000000000000000000000000000000000000000000600052604160045260246000fd5b600060033d1115613a1e5760046000803e613a1b600051613a32565b90505b90565b6000601f19601f8301169050919050565b60008160e01c9050919050565b7f455243313135353a207472616e7366657220746f206e6f6e204552433131353560008201527f526563656976657220696d706c656d656e746572000000000000000000000000602082015250565b7f455243313135353a2063616c6c6572206973206e6f7420746f6b656e206f776e60008201527f6572206e6f7220617070726f7665640000000000000000000000000000000000602082015250565b7f455243313135353a204552433131353552656365697665722072656a6563746560008201527f6420746f6b656e73000000000000000000000000000000000000000000000000602082015250565b7f4f776e61626c653a206e6577206f776e657220697320746865207a65726f206160008201527f6464726573730000000000000000000000000000000000000000000000000000602082015250565b7f455243313135353a206275726e20616d6f756e7420657863656564732062616c60008201527f616e636500000000000000000000000000000000000000000000000000000000602082015250565b7f455243313135353a2061646472657373207a65726f206973206e6f742061207660008201527f616c6964206f776e657200000000000000000000000000000000000000000000602082015250565b7f455243313135353a207472616e7366657220746f20746865207a65726f20616460008201527f6472657373000000000000000000000000000000000000000000000000000000602082015250565b7f455243313135353a206275726e2066726f6d20746865207a65726f206164647260008201527f6573730000000000000000000000000000000000000000000000000000000000602082015250565b7f455243313135353a20696e73756666696369656e742062616c616e636520666f60008201527f72207472616e7366657200000000000000000000000000000000000000000000602082015250565b7f4f776e61626c653a2063616c6c6572206973206e6f7420746865206f776e6572600082015250565b7f455243313135353a2073657474696e6720617070726f76616c2073746174757360008201527f20666f722073656c660000000000000000000000000000000000000000000000602082015250565b7f455243313135353a206163636f756e747320616e6420696473206c656e67746860008201527f206d69736d617463680000000000000000000000000000000000000000000000602082015250565b7f455243313135353a2069647320616e6420616d6f756e7473206c656e6774682060008201527f6d69736d61746368000000000000000000000000000000000000000000000000602082015250565b7f455243313135353a206d696e7420746f20746865207a65726f2061646472657360008201527f7300000000000000000000000000000000000000000000000000000000000000602082015250565b600060443d1015613e7b57613efe565b613e83613659565b60043d036004823e80513d602482011167ffffffffffffffff82111715613eab575050613efe565b808201805167ffffffffffffffff811115613ec95750505050613efe565b80602083010160043d038501811115613ee6575050505050613efe565b613ef5826020018501866138f8565b82955050505050505b90565b613f0a81613810565b8114613f1557600080fd5b50565b613f2181613822565b8114613f2c57600080fd5b50565b613f388161382e565b8114613f4357600080fd5b50565b613f4f8161387a565b8114613f5a57600080fd5b5056fea2646970667358221220bfe0803ffbe4d12257723c6548efd08e37978c56ccc03e185500d312180ca0ee64736f6c63430008040033",
  "immutableReferences": {},
  "source": "// SPDX-License-Identifier: MIT\r\n/*\r\n _______   __                      __              __       __\r\n/       \\ /  |                    /  |            /  |  _  /  |\r\n$$$$$$$  |$$ |  ______    _______ $$ |   __       $$ | / \\ $$ |  ______   __     __  ______\r\n$$ |__$$ |$$ | /      \\  /       |$$ |  /  |      $$ |/$  \\$$ | /      \\ /  \\   /  |/      \\\r\n$$    $$< $$ |/$$$$$$  |/$$$$$$$/ $$ |_/$$/       $$ /$$$  $$ | $$$$$$  |$$  \\ /$$//$$$$$$  |\r\n$$$$$$$  |$$ |$$ |  $$ |$$ |      $$   $$<        $$ $$/$$ $$ | /    $$ | $$  /$$/ $$    $$ |\r\n$$ |__$$ |$$ |$$ \\__$$ |$$ \\_____ $$$$$$  \\       $$$$/  $$$$ |/$$$$$$$ |  $$ $$/  $$$$$$$$/\r\n$$    $$/ $$ |$$    $$/ $$       |$$ | $$  |      $$$/    $$$ |$$    $$ |   $$$/   $$       |\r\n$$$$$$$/  $$/  $$$$$$/   $$$$$$$/ $$/   $$/       $$/      $$/  $$$$$$$/     $/     $$$$$$$/\r\n\r\n*/\r\n\r\npragma solidity ^0.8.4;\r\n\r\nimport \"@openzeppelin/contracts/token/ERC1155/ERC1155.sol\";\r\nimport \"@openzeppelin/contracts/access/Ownable.sol\";\r\n\r\ncontract BWLBadgeFactory is ERC1155, Ownable {\r\n    uint256 public count;\r\n\r\n    string public name;\r\n    string public symbol;\r\n\r\n    mapping(uint => string) public tokenURI;\r\n\r\n    constructor() ERC1155(\"\") {\r\n        count = 0;\r\n        name = \"BWLItems\";\r\n        symbol = \"BWLI\";\r\n    }\r\n\r\n    // Action\r\n    // External\r\n    function mintWithUri(address _to, uint _id, uint _amount, string memory _uri) external {\r\n        _mint(_to, _id, _amount, \"\");\r\n        setURI(_id, _uri);\r\n        count++;\r\n    }\r\n\r\n    function mintBatchWithUri(address _to, uint[] memory _ids, uint[] memory _amounts, string[] memory _uris) external {\r\n        _mintBatch(_to, _ids, _amounts, \"\");\r\n        for(uint i = 0; i < _ids.length; i++) {\r\n            setURI(_ids[i], _uris[i]);\r\n            count++;\r\n        }\r\n    }\r\n\r\n    function burn(uint _id, uint _amount) external {\r\n        _burn(msg.sender, _id, _amount);\r\n    }\r\n\r\n    function burnBatch(uint[] memory _ids, uint[] memory _amounts) external {\r\n        _burnBatch(msg.sender, _ids, _amounts);\r\n    }\r\n\r\n    function burnForMint(address _from, uint[] memory _burnIds, uint[] memory _burnAmounts, uint[] memory _mintIds, uint[] memory _mintAmounts) external onlyOwner {\r\n        _burnBatch(_from, _burnIds, _burnAmounts);\r\n        _mintBatch(_from, _mintIds, _mintAmounts, \"\");\r\n    }\r\n\r\n    // Utils\r\n    function setURI(uint _id, string memory _uri) public {\r\n        tokenURI[_id] = _uri;\r\n        emit URI(_uri, _id);\r\n    }\r\n\r\n    // View\r\n    function totalSupply() public view returns (uint256) {\r\n        return count;\r\n    }\r\n\r\n    function uri(uint _id) public override view returns (string memory) {\r\n        return tokenURI[_id];\r\n    }\r\n}",
  "sourcePath": "C:\\Users\\Dean\\Desktop\\InteliJ\\1155_factory_exam\\contracts\\BWLBadgeFactory.sol",
  "compiler": {
    "name": "solc",
    "version": "0.8.4+commit.c7e474f2.Emscripten.clang"
  },
  "schemaVersion": "3.4.7",
  "updatedAt": "2022-09-14T08:20:49.503Z",
  "networkType": "ethereum",
  "devdoc": {
    "kind": "dev",
    "methods": {
      "balanceOf(address,uint256)": {
        "details": "See {IERC1155-balanceOf}. Requirements: - `account` cannot be the zero address."
      },
      "balanceOfBatch(address[],uint256[])": {
        "details": "See {IERC1155-balanceOfBatch}. Requirements: - `accounts` and `ids` must have the same length."
      },
      "isApprovedForAll(address,address)": {
        "details": "See {IERC1155-isApprovedForAll}."
      },
      "owner()": {
        "details": "Returns the address of the current owner."
      },
      "renounceOwnership()": {
        "details": "Leaves the contract without owner. It will not be possible to call `onlyOwner` functions anymore. Can only be called by the current owner. NOTE: Renouncing ownership will leave the contract without an owner, thereby removing any functionality that is only available to the owner."
      },
      "safeBatchTransferFrom(address,address,uint256[],uint256[],bytes)": {
        "details": "See {IERC1155-safeBatchTransferFrom}."
      },
      "safeTransferFrom(address,address,uint256,uint256,bytes)": {
        "details": "See {IERC1155-safeTransferFrom}."
      },
      "setApprovalForAll(address,bool)": {
        "details": "See {IERC1155-setApprovalForAll}."
      },
      "supportsInterface(bytes4)": {
        "details": "See {IERC165-supportsInterface}."
      },
      "transferOwnership(address)": {
        "details": "Transfers ownership of the contract to a new account (`newOwner`). Can only be called by the current owner."
      }
    },
    "version": 1
  },
  "userdoc": {
    "kind": "user",
    "methods": {},
    "version": 1
  }
}