{
  "contractName": "ERC1155Token",
  "abi": [
    {
      "inputs": [
        {
          "internalType": "string",
          "name": "_contractName",
          "type": "string"
        },
        {
          "internalType": "string",
          "name": "_uri",
          "type": "string"
        },
        {
          "internalType": "string[]",
          "name": "_names",
          "type": "string[]"
        },
        {
          "internalType": "uint256[]",
          "name": "_ids",
          "type": "uint256[]"
        }
      ],
      "stateMutability": "nonpayable",
      "type": "constructor"
    },
    {
      "anonymous": false,
      "inputs": [
        {
          "indexed": true,
          "internalType": "address",
          "name": "account",
          "type": "address"
        },
        {
          "indexed": true,
          "internalType": "address",
          "name": "operator",
          "type": "address"
        },
        {
          "indexed": false,
          "internalType": "bool",
          "name": "approved",
          "type": "bool"
        }
      ],
      "name": "ApprovalForAll",
      "type": "event"
    },
    {
      "anonymous": false,
      "inputs": [
        {
          "indexed": true,
          "internalType": "address",
          "name": "previousOwner",
          "type": "address"
        },
        {
          "indexed": true,
          "internalType": "address",
          "name": "newOwner",
          "type": "address"
        }
      ],
      "name": "OwnershipTransferred",
      "type": "event"
    },
    {
      "anonymous": false,
      "inputs": [
        {
          "indexed": true,
          "internalType": "address",
          "name": "operator",
          "type": "address"
        },
        {
          "indexed": true,
          "internalType": "address",
          "name": "from",
          "type": "address"
        },
        {
          "indexed": true,
          "internalType": "address",
          "name": "to",
          "type": "address"
        },
        {
          "indexed": false,
          "internalType": "uint256[]",
          "name": "ids",
          "type": "uint256[]"
        },
        {
          "indexed": false,
          "internalType": "uint256[]",
          "name": "values",
          "type": "uint256[]"
        }
      ],
      "name": "TransferBatch",
      "type": "event"
    },
    {
      "anonymous": false,
      "inputs": [
        {
          "indexed": true,
          "internalType": "address",
          "name": "operator",
          "type": "address"
        },
        {
          "indexed": true,
          "internalType": "address",
          "name": "from",
          "type": "address"
        },
        {
          "indexed": true,
          "internalType": "address",
          "name": "to",
          "type": "address"
        },
        {
          "indexed": false,
          "internalType": "uint256",
          "name": "id",
          "type": "uint256"
        },
        {
          "indexed": false,
          "internalType": "uint256",
          "name": "value",
          "type": "uint256"
        }
      ],
      "name": "TransferSingle",
      "type": "event"
    },
    {
      "anonymous": false,
      "inputs": [
        {
          "indexed": false,
          "internalType": "string",
          "name": "value",
          "type": "string"
        },
        {
          "indexed": true,
          "internalType": "uint256",
          "name": "id",
          "type": "uint256"
        }
      ],
      "name": "URI",
      "type": "event"
    },
    {
      "inputs": [
        {
          "internalType": "address",
          "name": "account",
          "type": "address"
        },
        {
          "internalType": "uint256",
          "name": "id",
          "type": "uint256"
        }
      ],
      "name": "balanceOf",
      "outputs": [
        {
          "internalType": "uint256",
          "name": "",
          "type": "uint256"
        }
      ],
      "stateMutability": "view",
      "type": "function"
    },
    {
      "inputs": [
        {
          "internalType": "address[]",
          "name": "accounts",
          "type": "address[]"
        },
        {
          "internalType": "uint256[]",
          "name": "ids",
          "type": "uint256[]"
        }
      ],
      "name": "balanceOfBatch",
      "outputs": [
        {
          "internalType": "uint256[]",
          "name": "",
          "type": "uint256[]"
        }
      ],
      "stateMutability": "view",
      "type": "function"
    },
    {
      "inputs": [],
      "name": "baseMetadataURI",
      "outputs": [
        {
          "internalType": "string",
          "name": "",
          "type": "string"
        }
      ],
      "stateMutability": "view",
      "type": "function"
    },
    {
      "inputs": [
        {
          "internalType": "uint256",
          "name": "",
          "type": "uint256"
        }
      ],
      "name": "idToName",
      "outputs": [
        {
          "internalType": "string",
          "name": "",
          "type": "string"
        }
      ],
      "stateMutability": "view",
      "type": "function"
    },
    {
      "inputs": [
        {
          "internalType": "uint256",
          "name": "",
          "type": "uint256"
        }
      ],
      "name": "ids",
      "outputs": [
        {
          "internalType": "uint256",
          "name": "",
          "type": "uint256"
        }
      ],
      "stateMutability": "view",
      "type": "function"
    },
    {
      "inputs": [
        {
          "internalType": "address",
          "name": "account",
          "type": "address"
        },
        {
          "internalType": "address",
          "name": "operator",
          "type": "address"
        }
      ],
      "name": "isApprovedForAll",
      "outputs": [
        {
          "internalType": "bool",
          "name": "",
          "type": "bool"
        }
      ],
      "stateMutability": "view",
      "type": "function"
    },
    {
      "inputs": [],
      "name": "mintFee",
      "outputs": [
        {
          "internalType": "uint256",
          "name": "",
          "type": "uint256"
        }
      ],
      "stateMutability": "view",
      "type": "function"
    },
    {
      "inputs": [],
      "name": "name",
      "outputs": [
        {
          "internalType": "string",
          "name": "",
          "type": "string"
        }
      ],
      "stateMutability": "view",
      "type": "function"
    },
    {
      "inputs": [
        {
          "internalType": "string",
          "name": "",
          "type": "string"
        }
      ],
      "name": "nameToId",
      "outputs": [
        {
          "internalType": "uint256",
          "name": "",
          "type": "uint256"
        }
      ],
      "stateMutability": "view",
      "type": "function"
    },
    {
      "inputs": [
        {
          "internalType": "uint256",
          "name": "",
          "type": "uint256"
        }
      ],
      "name": "names",
      "outputs": [
        {
          "internalType": "string",
          "name": "",
          "type": "string"
        }
      ],
      "stateMutability": "view",
      "type": "function"
    },
    {
      "inputs": [],
      "name": "owner",
      "outputs": [
        {
          "internalType": "address",
          "name": "",
          "type": "address"
        }
      ],
      "stateMutability": "view",
      "type": "function"
    },
    {
      "inputs": [],
      "name": "renounceOwnership",
      "outputs": [],
      "stateMutability": "nonpayable",
      "type": "function"
    },
    {
      "inputs": [
        {
          "internalType": "address",
          "name": "from",
          "type": "address"
        },
        {
          "internalType": "address",
          "name": "to",
          "type": "address"
        },
        {
          "internalType": "uint256[]",
          "name": "ids",
          "type": "uint256[]"
        },
        {
          "internalType": "uint256[]",
          "name": "amounts",
          "type": "uint256[]"
        },
        {
          "internalType": "bytes",
          "name": "data",
          "type": "bytes"
        }
      ],
      "name": "safeBatchTransferFrom",
      "outputs": [],
      "stateMutability": "nonpayable",
      "type": "function"
    },
    {
      "inputs": [
        {
          "internalType": "address",
          "name": "from",
          "type": "address"
        },
        {
          "internalType": "address",
          "name": "to",
          "type": "address"
        },
        {
          "internalType": "uint256",
          "name": "id",
          "type": "uint256"
        },
        {
          "internalType": "uint256",
          "name": "amount",
          "type": "uint256"
        },
        {
          "internalType": "bytes",
          "name": "data",
          "type": "bytes"
        }
      ],
      "name": "safeTransferFrom",
      "outputs": [],
      "stateMutability": "nonpayable",
      "type": "function"
    },
    {
      "inputs": [
        {
          "internalType": "address",
          "name": "operator",
          "type": "address"
        },
        {
          "internalType": "bool",
          "name": "approved",
          "type": "bool"
        }
      ],
      "name": "setApprovalForAll",
      "outputs": [],
      "stateMutability": "nonpayable",
      "type": "function"
    },
    {
      "inputs": [
        {
          "internalType": "bytes4",
          "name": "interfaceId",
          "type": "bytes4"
        }
      ],
      "name": "supportsInterface",
      "outputs": [
        {
          "internalType": "bool",
          "name": "",
          "type": "bool"
        }
      ],
      "stateMutability": "view",
      "type": "function"
    },
    {
      "inputs": [
        {
          "internalType": "address",
          "name": "newOwner",
          "type": "address"
        }
      ],
      "name": "transferOwnership",
      "outputs": [],
      "stateMutability": "nonpayable",
      "type": "function"
    },
    {
      "inputs": [
        {
          "internalType": "uint256",
          "name": "_tokenid",
          "type": "uint256"
        }
      ],
      "name": "uri",
      "outputs": [
        {
          "internalType": "string",
          "name": "",
          "type": "string"
        }
      ],
      "stateMutability": "view",
      "type": "function"
    },
    {
      "inputs": [],
      "name": "getNames",
      "outputs": [
        {
          "internalType": "string[]",
          "name": "",
          "type": "string[]"
        }
      ],
      "stateMutability": "view",
      "type": "function"
    },
    {
      "inputs": [
        {
          "internalType": "string",
          "name": "newuri",
          "type": "string"
        }
      ],
      "name": "setURI",
      "outputs": [],
      "stateMutability": "nonpayable",
      "type": "function"
    },
    {
      "inputs": [
        {
          "internalType": "uint256",
          "name": "_fee",
          "type": "uint256"
        }
      ],
      "name": "setFee",
      "outputs": [],
      "stateMutability": "nonpayable",
      "type": "function"
    },
    {
      "inputs": [
        {
          "internalType": "address",
          "name": "account",
          "type": "address"
        },
        {
          "internalType": "uint256",
          "name": "_id",
          "type": "uint256"
        },
        {
          "internalType": "uint256",
          "name": "amount",
          "type": "uint256"
        }
      ],
      "name": "mint",
      "outputs": [
        {
          "internalType": "uint256",
          "name": "",
          "type": "uint256"
        }
      ],
      "stateMutability": "payable",
      "type": "function"
    },
    {
      "inputs": [
        {
          "internalType": "address",
          "name": "to",
          "type": "address"
        },
        {
          "internalType": "uint256[]",
          "name": "_ids",
          "type": "uint256[]"
        },
        {
          "internalType": "uint256[]",
          "name": "amounts",
          "type": "uint256[]"
        },
        {
          "internalType": "bytes",
          "name": "data",
          "type": "bytes"
        }
      ],
      "name": "mintBatch",
      "outputs": [],
      "stateMutability": "nonpayable",
      "type": "function"
    }
  ],
  "bytecode": "0x608060405260006008553480156200001657600080fd5b5060405162004ca538038062004ca583398181016040528101906200003c9190620009c3565b82620000578162000145640100000000026401000000009004565b506200008a6200007562000161640100000000026401000000009004565b62000169640100000000026401000000009004565b8160049080519060200190620000a29291906200056c565b508060059080519060200190620000bb929190620005d3565b50620000d56200022f640100000000026401000000009004565b620000ef83620003c0640100000000026401000000009004565b82600690805190602001906200010792919062000625565b5083600790805190602001906200012092919062000625565b506200013b32620003f6640100000000026401000000009004565b5050505062000ee1565b80600290805190602001906200015d92919062000625565b5050565b600033905090565b6000600360009054906101000a900473ffffffffffffffffffffffffffffffffffffffff16905081600360006101000a81548173ffffffffffffffffffffffffffffffffffffffff021916908373ffffffffffffffffffffffffffffffffffffffff1602179055508173ffffffffffffffffffffffffffffffffffffffff168173ffffffffffffffffffffffffffffffffffffffff167f8be0079c531659141344cd1fd0a4f28419497f9722a3daafe3b4186f6b6457e060405160405180910390a35050565b60005b600580549050811015620003bd57600581815481106200027b577f4e487b7100000000000000000000000000000000000000000000000000000000600052603260045260246000fd5b9060005260206000200154600960048381548110620002c3577f4e487b7100000000000000000000000000000000000000000000000000000000600052603260045260246000fd5b90600052602060002001604051620002dc919062000b6c565b9081526020016040518091039020819055506004818154811062000329577f4e487b7100000000000000000000000000000000000000000000000000000000600052603260045260246000fd5b90600052602060002001600a60006005848154811062000372577f4e487b7100000000000000000000000000000000000000000000000000000000600052603260045260246000fd5b90600052602060002001548152602001908152602001600020908054620003999062000cf7565b620003a6929190620006b6565b508080620003b49062000d63565b91505062000232565b50565b620003d96200049f640100000000026401000000009004565b620003f38162000145640100000000026401000000009004565b50565b6200040f6200049f640100000000026401000000009004565b600073ffffffffffffffffffffffffffffffffffffffff168173ffffffffffffffffffffffffffffffffffffffff16141562000482576040517f08c379a0000000000000000000000000000000000000000000000000000000008152600401620004799062000b85565b60405180910390fd5b6200049c8162000169640100000000026401000000009004565b50565b620004b862000161640100000000026401000000009004565b73ffffffffffffffffffffffffffffffffffffffff16620004e762000542640100000000026401000000009004565b73ffffffffffffffffffffffffffffffffffffffff161462000540576040517f08c379a0000000000000000000000000000000000000000000000000000000008152600401620005379062000ba7565b60405180910390fd5b565b6000600360009054906101000a900473ffffffffffffffffffffffffffffffffffffffff16905090565b828054828255906000526020600020908101928215620005c0579160200282015b82811115620005bf578251829080519060200190620005ae92919062000625565b50916020019190600101906200058d565b5b509050620005cf91906200074e565b5090565b82805482825590600052602060002090810192821562000612579160200282015b8281111562000611578251825591602001919060010190620005f4565b5b50905062000621919062000776565b5090565b828054620006339062000cf7565b90600052602060002090601f016020900481019282620006575760008555620006a3565b82601f106200067257805160ff1916838001178555620006a3565b82800160010185558215620006a3579182015b82811115620006a257825182559160200191906001019062000685565b5b509050620006b2919062000776565b5090565b828054620006c49062000cf7565b90600052602060002090601f016020900481019282620006e857600085556200073b565b82601f10620006fb57805485556200073b565b828001600101855582156200073b57600052602060002091601f016020900482015b828111156200073a5782548255916001019190600101906200071d565b5b5090506200074a919062000776565b5090565b5b8082111562000772576000818162000768919062000795565b506001016200074f565b5090565b5b808211156200079157600081600090555060010162000777565b5090565b508054620007a39062000cf7565b6000825580601f10620007b75750620007d8565b601f016020900490600052602060002090810190620007d7919062000776565b5b50565b6000620007f2620007ec8462000bf2565b62000bc9565b905080838252602082019050828560208602820111156200081257600080fd5b60005b858110156200086157815167ffffffffffffffff8111156200083657600080fd5b8086016200084589826200097f565b8552602085019450602084019350505060018101905062000815565b5050509392505050565b6000620008826200087c8462000c21565b62000bc9565b90508083825260208201905082856020860282011115620008a257600080fd5b60005b85811015620008d65781620008bb8882620009ac565b845260208401935060208301925050600181019050620008a5565b5050509392505050565b6000620008f7620008f18462000c50565b62000bc9565b9050828152602081018484840111156200091057600080fd5b6200091d84828562000cc1565b509392505050565b600082601f8301126200093757600080fd5b815162000949848260208601620007db565b91505092915050565b600082601f8301126200096457600080fd5b8151620009768482602086016200086b565b91505092915050565b600082601f8301126200099157600080fd5b8151620009a3848260208601620008e0565b91505092915050565b600081519050620009bd8162000ec7565b92915050565b60008060008060808587031215620009da57600080fd5b600085015167ffffffffffffffff811115620009f557600080fd5b62000a03878288016200097f565b945050602085015167ffffffffffffffff81111562000a2157600080fd5b62000a2f878288016200097f565b935050604085015167ffffffffffffffff81111562000a4d57600080fd5b62000a5b8782880162000925565b925050606085015167ffffffffffffffff81111562000a7957600080fd5b62000a878782880162000952565b91505092959194509250565b6000815462000aa28162000cf7565b62000aae818662000cac565b9450600182166000811462000acc576001811462000ade5762000b15565b60ff1983168652818601935062000b15565b62000ae98562000c86565b60005b8381101562000b0d5781548189015260018201915060208101905062000aec565b838801955050505b50505092915050565b600062000b2d60268362000c9b565b915062000b3a8262000e4f565b604082019050919050565b600062000b5460208362000c9b565b915062000b618262000e9e565b602082019050919050565b600062000b7a828462000a93565b915081905092915050565b6000602082019050818103600083015262000ba08162000b1e565b9050919050565b6000602082019050818103600083015262000bc28162000b45565b9050919050565b600062000bd562000be8565b905062000be3828262000d2d565b919050565b6000604051905090565b600067ffffffffffffffff82111562000c105762000c0f62000e0f565b5b602082029050602081019050919050565b600067ffffffffffffffff82111562000c3f5762000c3e62000e0f565b5b602082029050602081019050919050565b600067ffffffffffffffff82111562000c6e5762000c6d62000e0f565b5b62000c798262000e3e565b9050602081019050919050565b60008190508160005260206000209050919050565b600082825260208201905092915050565b600081905092915050565b6000819050919050565b60005b8381101562000ce157808201518184015260208101905062000cc4565b8381111562000cf1576000848401525b50505050565b6000600282049050600182168062000d1057607f821691505b6020821081141562000d275762000d2662000de0565b5b50919050565b62000d388262000e3e565b810181811067ffffffffffffffff8211171562000d5a5762000d5962000e0f565b5b80604052505050565b600062000d708262000cb7565b91507fffffffffffffffffffffffffffffffffffffffffffffffffffffffffffffffff82141562000da65762000da562000db1565b5b600182019050919050565b7f4e487b7100000000000000000000000000000000000000000000000000000000600052601160045260246000fd5b7f4e487b7100000000000000000000000000000000000000000000000000000000600052602260045260246000fd5b7f4e487b7100000000000000000000000000000000000000000000000000000000600052604160045260246000fd5b6000601f19601f8301169050919050565b7f4f776e61626c653a206e6577206f776e657220697320746865207a65726f206160008201527f6464726573730000000000000000000000000000000000000000000000000000602082015250565b7f4f776e61626c653a2063616c6c6572206973206e6f7420746865206f776e6572600082015250565b62000ed28162000cb7565b811462000ede57600080fd5b50565b613db48062000ef16000396000f3fe60806040526004361061015c576000357c0100000000000000000000000000000000000000000000000000000000900480634e1273f4116100d3578063cd838f0f1161008c578063cd838f0f1461048f578063e985e9c5146104ba578063f242432a146104f7578063f2fde38b14610520578063f6d8f2cb14610549578063fac333ac146105865761015c565b80634e1273f4146103935780635b2bd79e146103d057806369fe0e2d146103fb578063715018a6146104245780638da5cb5b1461043b578063a22cb465146104665761015c565b806313966db51161012557806313966db51461026c578063156e29f6146102975780631f7fdffa146102c75780632eb2c2d6146102f0578063364410b3146103195780634622ab03146103565761015c565b8062fdd58e1461016157806301ffc9a71461019e57806302fe5305146101db57806306fdde03146102045780630e89341c1461022f575b600080fd5b34801561016d57600080fd5b5061018860048036038101906101839190612a1d565b6105c3565b6040516101959190613371565b60405180910390f35b3480156101aa57600080fd5b506101c560048036038101906101c09190612b14565b61068c565b6040516101d291906131b4565b60405180910390f35b3480156101e757600080fd5b5061020260048036038101906101fd9190612b66565b61076e565b005b34801561021057600080fd5b50610219610782565b60405161022691906131cf565b60405180910390f35b34801561023b57600080fd5b5061025660048036038101906102519190612ba7565b610810565b60405161026391906131cf565b60405180910390f35b34801561027857600080fd5b50610281610844565b60405161028e9190613371565b60405180910390f35b6102b160048036038101906102ac9190612a59565b61084a565b6040516102be9190613371565b60405180910390f35b3480156102d357600080fd5b506102ee60048036038101906102e99190612936565b61087f565b005b3480156102fc57600080fd5b50610317600480360381019061031291906127e8565b610891565b005b34801561032557600080fd5b50610340600480360381019061033b9190612ba7565b610932565b60405161034d91906131cf565b60405180910390f35b34801561036257600080fd5b5061037d60048036038101906103789190612ba7565b6109d2565b60405161038a91906131cf565b60405180910390f35b34801561039f57600080fd5b506103ba60048036038101906103b59190612aa8565b610a7e565b6040516103c7919061315b565b60405180910390f35b3480156103dc57600080fd5b506103e5610c2f565b6040516103f291906131cf565b60405180910390f35b34801561040757600080fd5b50610422600480360381019061041d9190612ba7565b610cbd565b005b34801561043057600080fd5b50610439610ccf565b005b34801561044757600080fd5b50610450610ce3565b60405161045d919061305c565b60405180910390f35b34801561047257600080fd5b5061048d600480360381019061048891906129e1565b610d0d565b005b34801561049b57600080fd5b506104a4610d23565b6040516104b19190613139565b60405180910390f35b3480156104c657600080fd5b506104e160048036038101906104dc91906127ac565b610dfc565b6040516104ee91906131b4565b60405180910390f35b34801561050357600080fd5b5061051e600480360381019061051991906128a7565b610e90565b005b34801561052c57600080fd5b5061054760048036038101906105429190612783565b610f31565b005b34801561055557600080fd5b50610570600480360381019061056b9190612b66565b610fb5565b60405161057d9190613371565b60405180910390f35b34801561059257600080fd5b506105ad60048036038101906105a89190612ba7565b610fe3565b6040516105ba9190613371565b60405180910390f35b60008073ffffffffffffffffffffffffffffffffffffffff168373ffffffffffffffffffffffffffffffffffffffff161415610634576040517f08c379a000000000000000000000000000000000000000000000000000000000815260040161062b90613271565b60405180910390fd5b60008083815260200190815260200160002060008473ffffffffffffffffffffffffffffffffffffffff1673ffffffffffffffffffffffffffffffffffffffff16815260200190815260200160002054905092915050565b60007fd9b67a26000000000000000000000000000000000000000000000000000000007bffffffffffffffffffffffffffffffffffffffffffffffffffffffff1916827bffffffffffffffffffffffffffffffffffffffffffffffffffffffff1916148061075757507f0e89341c000000000000000000000000000000000000000000000000000000007bffffffffffffffffffffffffffffffffffffffffffffffffffffffff1916827bffffffffffffffffffffffffffffffffffffffffffffffffffffffff1916145b80610767575061076682611007565b5b9050919050565b610776611071565b61077f816110ef565b50565b6007805461078f906136e0565b80601f01602080910402602001604051908101604052809291908181526020018280546107bb906136e0565b80156108085780601f106107dd57610100808354040283529160200191610808565b820191906000526020600020905b8154815290600101906020018083116107eb57829003601f168201915b505050505081565b6060600661081d83611109565b60405160200161082e92919061302d565b6040516020818303038152906040529050919050565b60085481565b6000600854341461085a57600080fd5b610875848484604051806020016040528060008152506112d5565b8290509392505050565b61088b84848484611486565b50505050565b6108996116ff565b73ffffffffffffffffffffffffffffffffffffffff168573ffffffffffffffffffffffffffffffffffffffff1614806108df57506108de856108d96116ff565b610dfc565b5b61091e576040517f08c379a000000000000000000000000000000000000000000000000000000000815260040161091590613211565b60405180910390fd5b61092b8585858585611707565b5050505050565b600a6020528060005260406000206000915090508054610951906136e0565b80601f016020809104026020016040519081016040528092919081815260200182805461097d906136e0565b80156109ca5780601f1061099f576101008083540402835291602001916109ca565b820191906000526020600020905b8154815290600101906020018083116109ad57829003601f168201915b505050505081565b600481815481106109e257600080fd5b9060005260206000200160009150905080546109fd906136e0565b80601f0160208091040260200160405190810160405280929190818152602001828054610a29906136e0565b8015610a765780601f10610a4b57610100808354040283529160200191610a76565b820191906000526020600020905b815481529060010190602001808311610a5957829003601f168201915b505050505081565b60608151835114610ac4576040517f08c379a0000000000000000000000000000000000000000000000000000000008152600401610abb90613311565b60405180910390fd5b6000835167ffffffffffffffff811115610b07577f4e487b7100000000000000000000000000000000000000000000000000000000600052604160045260246000fd5b604051908082528060200260200182016040528015610b355781602001602082028036833780820191505090505b50905060005b8451811015610c2457610bce858281518110610b80577f4e487b7100000000000000000000000000000000000000000000000000000000600052603260045260246000fd5b6020026020010151858381518110610bc1577f4e487b7100000000000000000000000000000000000000000000000000000000600052603260045260246000fd5b60200260200101516105c3565b828281518110610c07577f4e487b7100000000000000000000000000000000000000000000000000000000600052603260045260246000fd5b60200260200101818152505080610c1d90613743565b9050610b3b565b508091505092915050565b60068054610c3c906136e0565b80601f0160208091040260200160405190810160405280929190818152602001828054610c68906136e0565b8015610cb55780601f10610c8a57610100808354040283529160200191610cb5565b820191906000526020600020905b815481529060010190602001808311610c9857829003601f168201915b505050505081565b610cc5611071565b8060088190555050565b610cd7611071565b610ce16000611a75565b565b6000600360009054906101000a900473ffffffffffffffffffffffffffffffffffffffff16905090565b610d1f610d186116ff565b8383611b3b565b5050565b60606004805480602002602001604051908101604052809291908181526020016000905b82821015610df3578382906000526020600020018054610d66906136e0565b80601f0160208091040260200160405190810160405280929190818152602001828054610d92906136e0565b8015610ddf5780601f10610db457610100808354040283529160200191610ddf565b820191906000526020600020905b815481529060010190602001808311610dc257829003601f168201915b505050505081526020019060010190610d47565b50505050905090565b6000600160008473ffffffffffffffffffffffffffffffffffffffff1673ffffffffffffffffffffffffffffffffffffffff16815260200190815260200160002060008373ffffffffffffffffffffffffffffffffffffffff1673ffffffffffffffffffffffffffffffffffffffff16815260200190815260200160002060009054906101000a900460ff16905092915050565b610e986116ff565b73ffffffffffffffffffffffffffffffffffffffff168573ffffffffffffffffffffffffffffffffffffffff161480610ede5750610edd85610ed86116ff565b610dfc565b5b610f1d576040517f08c379a0000000000000000000000000000000000000000000000000000000008152600401610f1490613211565b60405180910390fd5b610f2a8585858585611ca8565b5050505050565b610f39611071565b600073ffffffffffffffffffffffffffffffffffffffff168173ffffffffffffffffffffffffffffffffffffffff161415610fa9576040517f08c379a0000000000000000000000000000000000000000000000000000000008152600401610fa090613251565b60405180910390fd5b610fb281611a75565b50565b6009818051602081018201805184825260208301602085012081835280955050505050506000915090505481565b60058181548110610ff357600080fd5b906000526020600020016000915090505481565b60007f01ffc9a7000000000000000000000000000000000000000000000000000000007bffffffffffffffffffffffffffffffffffffffffffffffffffffffff1916827bffffffffffffffffffffffffffffffffffffffffffffffffffffffff1916149050919050565b6110796116ff565b73ffffffffffffffffffffffffffffffffffffffff16611097610ce3565b73ffffffffffffffffffffffffffffffffffffffff16146110ed576040517f08c379a00000000000000000000000000000000000000000000000000000000081526004016110e4906132d1565b60405180910390fd5b565b806002908051906020019061110592919061247b565b5050565b60606000821415611151576040518060400160405280600181526020017f300000000000000000000000000000000000000000000000000000000000000081525090506112d0565b600082905060005b6000821461118357808061116c90613743565b915050600a8261117c91906135c5565b9150611159565b60008167ffffffffffffffff8111156111c5577f4e487b7100000000000000000000000000000000000000000000000000000000600052604160045260246000fd5b6040519080825280601f01601f1916602001820160405280156111f75781602001600182028036833780820191505090505b5090505b600085146112c95760018261121091906135f6565b9150600a8561121f919061378c565b603061122b919061356f565b7f010000000000000000000000000000000000000000000000000000000000000002818381518110611286577f4e487b7100000000000000000000000000000000000000000000000000000000600052603260045260246000fd5b60200101907effffffffffffffffffffffffffffffffffffffffffffffffffffffffffffff1916908160001a905350600a856112c291906135c5565b94506111fb565b8093505050505b919050565b600073ffffffffffffffffffffffffffffffffffffffff168473ffffffffffffffffffffffffffffffffffffffff161415611345576040517f08c379a000000000000000000000000000000000000000000000000000000000815260040161133c90613351565b60405180910390fd5b600061134f6116ff565b9050600061135c85611f44565b9050600061136985611f44565b905061137a8360008985858961200a565b8460008088815260200190815260200160002060008973ffffffffffffffffffffffffffffffffffffffff1673ffffffffffffffffffffffffffffffffffffffff16815260200190815260200160002060008282546113d9919061356f565b925050819055508673ffffffffffffffffffffffffffffffffffffffff16600073ffffffffffffffffffffffffffffffffffffffff168473ffffffffffffffffffffffffffffffffffffffff167fc3d58168c5ae7397731d063d5bbf3d657854427343f4c083240f7aacaa2d0f62898960405161145792919061338c565b60405180910390a461146e83600089858589612012565b61147d8360008989898961201a565b50505050505050565b600073ffffffffffffffffffffffffffffffffffffffff168473ffffffffffffffffffffffffffffffffffffffff1614156114f6576040517f08c379a00000000000000000000000000000000000000000000000000000000081526004016114ed90613351565b60405180910390fd5b815183511461153a576040517f08c379a000000000000000000000000000000000000000000000000000000000815260040161153190613331565b60405180910390fd5b60006115446116ff565b90506115558160008787878761200a565b60005b845181101561165a5783818151811061159a577f4e487b7100000000000000000000000000000000000000000000000000000000600052603260045260246000fd5b60200260200101516000808784815181106115de577f4e487b7100000000000000000000000000000000000000000000000000000000600052603260045260246000fd5b6020026020010151815260200190815260200160002060008873ffffffffffffffffffffffffffffffffffffffff1673ffffffffffffffffffffffffffffffffffffffff1681526020019081526020016000206000828254611640919061356f565b92505081905550808061165290613743565b915050611558565b508473ffffffffffffffffffffffffffffffffffffffff16600073ffffffffffffffffffffffffffffffffffffffff168273ffffffffffffffffffffffffffffffffffffffff167f4a39dc06d4c0dbc64b70af90fd698a233a518aa5d07e595d983b8c0526c8f7fb87876040516116d292919061317d565b60405180910390a46116e981600087878787612012565b6116f881600087878787612239565b5050505050565b600033905090565b815183511461174b576040517f08c379a000000000000000000000000000000000000000000000000000000000815260040161174290613331565b60405180910390fd5b600073ffffffffffffffffffffffffffffffffffffffff168473ffffffffffffffffffffffffffffffffffffffff1614156117bb576040517f08c379a00000000000000000000000000000000000000000000000000000000081526004016117b290613291565b60405180910390fd5b60006117c56116ff565b90506117d581878787878761200a565b60005b84518110156119d257600085828151811061181c577f4e487b7100000000000000000000000000000000000000000000000000000000600052603260045260246000fd5b602002602001015190506000858381518110611861577f4e487b7100000000000000000000000000000000000000000000000000000000600052603260045260246000fd5b60200260200101519050600080600084815260200190815260200160002060008b73ffffffffffffffffffffffffffffffffffffffff1673ffffffffffffffffffffffffffffffffffffffff16815260200190815260200160002054905081811015611902576040517f08c379a00000000000000000000000000000000000000000000000000000000081526004016118f9906132b1565b60405180910390fd5b81810360008085815260200190815260200160002060008c73ffffffffffffffffffffffffffffffffffffffff1673ffffffffffffffffffffffffffffffffffffffff168152602001908152602001600020819055508160008085815260200190815260200160002060008b73ffffffffffffffffffffffffffffffffffffffff1673ffffffffffffffffffffffffffffffffffffffff16815260200190815260200160002060008282546119b7919061356f565b92505081905550505050806119cb90613743565b90506117d8565b508473ffffffffffffffffffffffffffffffffffffffff168673ffffffffffffffffffffffffffffffffffffffff168273ffffffffffffffffffffffffffffffffffffffff167f4a39dc06d4c0dbc64b70af90fd698a233a518aa5d07e595d983b8c0526c8f7fb8787604051611a4992919061317d565b60405180910390a4611a5f818787878787612012565b611a6d818787878787612239565b505050505050565b6000600360009054906101000a900473ffffffffffffffffffffffffffffffffffffffff16905081600360006101000a81548173ffffffffffffffffffffffffffffffffffffffff021916908373ffffffffffffffffffffffffffffffffffffffff1602179055508173ffffffffffffffffffffffffffffffffffffffff168173ffffffffffffffffffffffffffffffffffffffff167f8be0079c531659141344cd1fd0a4f28419497f9722a3daafe3b4186f6b6457e060405160405180910390a35050565b8173ffffffffffffffffffffffffffffffffffffffff168373ffffffffffffffffffffffffffffffffffffffff161415611baa576040517f08c379a0000000000000000000000000000000000000000000000000000000008152600401611ba1906132f1565b60405180910390fd5b80600160008573ffffffffffffffffffffffffffffffffffffffff1673ffffffffffffffffffffffffffffffffffffffff16815260200190815260200160002060008473ffffffffffffffffffffffffffffffffffffffff1673ffffffffffffffffffffffffffffffffffffffff16815260200190815260200160002060006101000a81548160ff0219169083151502179055508173ffffffffffffffffffffffffffffffffffffffff168373ffffffffffffffffffffffffffffffffffffffff167f17307eab39ab6107e8899845ad3d59bd9653f200f220920489ca2b5937696c3183604051611c9b91906131b4565b60405180910390a3505050565b600073ffffffffffffffffffffffffffffffffffffffff168473ffffffffffffffffffffffffffffffffffffffff161415611d18576040517f08c379a0000000000000000000000000000000000000000000000000000000008152600401611d0f90613291565b60405180910390fd5b6000611d226116ff565b90506000611d2f85611f44565b90506000611d3c85611f44565b9050611d4c83898985858961200a565b600080600088815260200190815260200160002060008a73ffffffffffffffffffffffffffffffffffffffff1673ffffffffffffffffffffffffffffffffffffffff16815260200190815260200160002054905085811015611de3576040517f08c379a0000000000000000000000000000000000000000000000000000000008152600401611dda906132b1565b60405180910390fd5b85810360008089815260200190815260200160002060008b73ffffffffffffffffffffffffffffffffffffffff1673ffffffffffffffffffffffffffffffffffffffff168152602001908152602001600020819055508560008089815260200190815260200160002060008a73ffffffffffffffffffffffffffffffffffffffff1673ffffffffffffffffffffffffffffffffffffffff1681526020019081526020016000206000828254611e98919061356f565b925050819055508773ffffffffffffffffffffffffffffffffffffffff168973ffffffffffffffffffffffffffffffffffffffff168573ffffffffffffffffffffffffffffffffffffffff167fc3d58168c5ae7397731d063d5bbf3d657854427343f4c083240f7aacaa2d0f628a8a604051611f1592919061338c565b60405180910390a4611f2b848a8a86868a612012565b611f39848a8a8a8a8a61201a565b505050505050505050565b60606000600167ffffffffffffffff811115611f89577f4e487b7100000000000000000000000000000000000000000000000000000000600052604160045260246000fd5b604051908082528060200260200182016040528015611fb75781602001602082028036833780820191505090505b5090508281600081518110611ff5577f4e487b7100000000000000000000000000000000000000000000000000000000600052603260045260246000fd5b60200260200101818152505080915050919050565b505050505050565b505050505050565b6120398473ffffffffffffffffffffffffffffffffffffffff16612458565b15612231578373ffffffffffffffffffffffffffffffffffffffff1663f23a6e6187878686866040518663ffffffff167c010000000000000000000000000000000000000000000000000000000002815260040161209b9594939291906130df565b602060405180830381600087803b1580156120b557600080fd5b505af19250505080156120e657506040513d601f19601f820116820180604052508101906120e39190612b3d565b60015b61218c576120f2613879565b806308c379a0141561214f5750612107613c8c565b806121125750612151565b806040517f08c379a000000000000000000000000000000000000000000000000000000000815260040161214691906131cf565b60405180910390fd5b505b6040517f08c379a0000000000000000000000000000000000000000000000000000000008152600401612183906131f1565b60405180910390fd5b63f23a6e617c0100000000000000000000000000000000000000000000000000000000027bffffffffffffffffffffffffffffffffffffffffffffffffffffffff1916817bffffffffffffffffffffffffffffffffffffffffffffffffffffffff19161461222f576040517f08c379a000000000000000000000000000000000000000000000000000000000815260040161222690613231565b60405180910390fd5b505b505050505050565b6122588473ffffffffffffffffffffffffffffffffffffffff16612458565b15612450578373ffffffffffffffffffffffffffffffffffffffff1663bc197c8187878686866040518663ffffffff167c01000000000000000000000000000000000000000000000000000000000281526004016122ba959493929190613077565b602060405180830381600087803b1580156122d457600080fd5b505af192505050801561230557506040513d601f19601f820116820180604052508101906123029190612b3d565b60015b6123ab57612311613879565b806308c379a0141561236e5750612326613c8c565b806123315750612370565b806040517f08c379a000000000000000000000000000000000000000000000000000000000815260040161236591906131cf565b60405180910390fd5b505b6040517f08c379a00000000000000000000000000000000000000000000000000000000081526004016123a2906131f1565b60405180910390fd5b63bc197c817c0100000000000000000000000000000000000000000000000000000000027bffffffffffffffffffffffffffffffffffffffffffffffffffffffff1916817bffffffffffffffffffffffffffffffffffffffffffffffffffffffff19161461244e576040517f08c379a000000000000000000000000000000000000000000000000000000000815260040161244590613231565b60405180910390fd5b505b505050505050565b6000808273ffffffffffffffffffffffffffffffffffffffff163b119050919050565b828054612487906136e0565b90600052602060002090601f0160209004810192826124a957600085556124f0565b82601f106124c257805160ff19168380011785556124f0565b828001600101855582156124f0579182015b828111156124ef5782518255916020019190600101906124d4565b5b5090506124fd9190612501565b5090565b5b8082111561251a576000816000905550600101612502565b5090565b600061253161252c846133da565b6133b5565b9050808382526020820190508285602086028201111561255057600080fd5b60005b8581101561258057816125668882612672565b845260208401935060208301925050600181019050612553565b5050509392505050565b600061259d61259884613406565b6133b5565b905080838252602082019050828560208602820111156125bc57600080fd5b60005b858110156125ec57816125d2888261276e565b8452602084019350602083019250506001810190506125bf565b5050509392505050565b600061260961260484613432565b6133b5565b90508281526020810184848401111561262157600080fd5b61262c84828561369e565b509392505050565b600061264761264284613463565b6133b5565b90508281526020810184848401111561265f57600080fd5b61266a84828561369e565b509392505050565b60008135905061268181613d22565b92915050565b600082601f83011261269857600080fd5b81356126a884826020860161251e565b91505092915050565b600082601f8301126126c257600080fd5b81356126d284826020860161258a565b91505092915050565b6000813590506126ea81613d39565b92915050565b6000813590506126ff81613d50565b92915050565b60008151905061271481613d50565b92915050565b600082601f83011261272b57600080fd5b813561273b8482602086016125f6565b91505092915050565b600082601f83011261275557600080fd5b8135612765848260208601612634565b91505092915050565b60008135905061277d81613d67565b92915050565b60006020828403121561279557600080fd5b60006127a384828501612672565b91505092915050565b600080604083850312156127bf57600080fd5b60006127cd85828601612672565b92505060206127de85828601612672565b9150509250929050565b600080600080600060a0868803121561280057600080fd5b600061280e88828901612672565b955050602061281f88828901612672565b945050604086013567ffffffffffffffff81111561283c57600080fd5b612848888289016126b1565b935050606086013567ffffffffffffffff81111561286557600080fd5b612871888289016126b1565b925050608086013567ffffffffffffffff81111561288e57600080fd5b61289a8882890161271a565b9150509295509295909350565b600080600080600060a086880312156128bf57600080fd5b60006128cd88828901612672565b95505060206128de88828901612672565b94505060406128ef8882890161276e565b93505060606129008882890161276e565b925050608086013567ffffffffffffffff81111561291d57600080fd5b6129298882890161271a565b9150509295509295909350565b6000806000806080858703121561294c57600080fd5b600061295a87828801612672565b945050602085013567ffffffffffffffff81111561297757600080fd5b612983878288016126b1565b935050604085013567ffffffffffffffff8111156129a057600080fd5b6129ac878288016126b1565b925050606085013567ffffffffffffffff8111156129c957600080fd5b6129d58782880161271a565b91505092959194509250565b600080604083850312156129f457600080fd5b6000612a0285828601612672565b9250506020612a13858286016126db565b9150509250929050565b60008060408385031215612a3057600080fd5b6000612a3e85828601612672565b9250506020612a4f8582860161276e565b9150509250929050565b600080600060608486031215612a6e57600080fd5b6000612a7c86828701612672565b9350506020612a8d8682870161276e565b9250506040612a9e8682870161276e565b9150509250925092565b60008060408385031215612abb57600080fd5b600083013567ffffffffffffffff811115612ad557600080fd5b612ae185828601612687565b925050602083013567ffffffffffffffff811115612afe57600080fd5b612b0a858286016126b1565b9150509250929050565b600060208284031215612b2657600080fd5b6000612b34848285016126f0565b91505092915050565b600060208284031215612b4f57600080fd5b6000612b5d84828501612705565b91505092915050565b600060208284031215612b7857600080fd5b600082013567ffffffffffffffff811115612b9257600080fd5b612b9e84828501612744565b91505092915050565b600060208284031215612bb957600080fd5b6000612bc78482850161276e565b91505092915050565b6000612bdc8383612d26565b905092915050565b6000612bf0838361300f565b60208301905092915050565b612c058161362a565b82525050565b6000612c16826134c9565b612c20818561350f565b935083602082028501612c3285613494565b8060005b85811015612c6e5784840389528151612c4f8582612bd0565b9450612c5a836134f5565b925060208a01995050600181019050612c36565b50829750879550505050505092915050565b6000612c8b826134d4565b612c958185613520565b9350612ca0836134a4565b8060005b83811015612cd1578151612cb88882612be4565b9750612cc383613502565b925050600181019050612ca4565b5085935050505092915050565b612ce78161363c565b82525050565b6000612cf8826134df565b612d028185613531565b9350612d128185602086016136ad565b612d1b8161389b565b840191505092915050565b6000612d31826134ea565b612d3b8185613542565b9350612d4b8185602086016136ad565b612d548161389b565b840191505092915050565b6000612d6a826134ea565b612d748185613553565b9350612d848185602086016136ad565b612d8d8161389b565b840191505092915050565b6000612da3826134ea565b612dad8185613564565b9350612dbd8185602086016136ad565b80840191505092915050565b60008154612dd6816136e0565b612de08186613564565b94506001821660008114612dfb5760018114612e0c57612e3f565b60ff19831686528186019350612e3f565b612e15856134b4565b60005b83811015612e3757815481890152600182019150602081019050612e18565b838801955050505b50505092915050565b6000612e55603483613553565b9150612e60826138d5565b604082019050919050565b6000612e78602f83613553565b9150612e8382613924565b604082019050919050565b6000612e9b602883613553565b9150612ea682613973565b604082019050919050565b6000612ebe602683613553565b9150612ec9826139c2565b604082019050919050565b6000612ee1602a83613553565b9150612eec82613a11565b604082019050919050565b6000612f04602583613553565b9150612f0f82613a60565b604082019050919050565b6000612f27602a83613553565b9150612f3282613aaf565b604082019050919050565b6000612f4a600583613564565b9150612f5582613afe565b600582019050919050565b6000612f6d602083613553565b9150612f7882613b27565b602082019050919050565b6000612f90602983613553565b9150612f9b82613b50565b604082019050919050565b6000612fb3602983613553565b9150612fbe82613b9f565b604082019050919050565b6000612fd6602883613553565b9150612fe182613bee565b604082019050919050565b6000612ff9602183613553565b915061300482613c3d565b604082019050919050565b61301881613694565b82525050565b61302781613694565b82525050565b60006130398285612dc9565b91506130458284612d98565b915061305082612f3d565b91508190509392505050565b60006020820190506130716000830184612bfc565b92915050565b600060a08201905061308c6000830188612bfc565b6130996020830187612bfc565b81810360408301526130ab8186612c80565b905081810360608301526130bf8185612c80565b905081810360808301526130d38184612ced565b90509695505050505050565b600060a0820190506130f46000830188612bfc565b6131016020830187612bfc565b61310e604083018661301e565b61311b606083018561301e565b818103608083015261312d8184612ced565b90509695505050505050565b600060208201905081810360008301526131538184612c0b565b905092915050565b600060208201905081810360008301526131758184612c80565b905092915050565b600060408201905081810360008301526131978185612c80565b905081810360208301526131ab8184612c80565b90509392505050565b60006020820190506131c96000830184612cde565b92915050565b600060208201905081810360008301526131e98184612d5f565b905092915050565b6000602082019050818103600083015261320a81612e48565b9050919050565b6000602082019050818103600083015261322a81612e6b565b9050919050565b6000602082019050818103600083015261324a81612e8e565b9050919050565b6000602082019050818103600083015261326a81612eb1565b9050919050565b6000602082019050818103600083015261328a81612ed4565b9050919050565b600060208201905081810360008301526132aa81612ef7565b9050919050565b600060208201905081810360008301526132ca81612f1a565b9050919050565b600060208201905081810360008301526132ea81612f60565b9050919050565b6000602082019050818103600083015261330a81612f83565b9050919050565b6000602082019050818103600083015261332a81612fa6565b9050919050565b6000602082019050818103600083015261334a81612fc9565b9050919050565b6000602082019050818103600083015261336a81612fec565b9050919050565b6000602082019050613386600083018461301e565b92915050565b60006040820190506133a1600083018561301e565b6133ae602083018461301e565b9392505050565b60006133bf6133d0565b90506133cb8282613712565b919050565b6000604051905090565b600067ffffffffffffffff8211156133f5576133f461384a565b5b602082029050602081019050919050565b600067ffffffffffffffff8211156134215761342061384a565b5b602082029050602081019050919050565b600067ffffffffffffffff82111561344d5761344c61384a565b5b6134568261389b565b9050602081019050919050565b600067ffffffffffffffff82111561347e5761347d61384a565b5b6134878261389b565b9050602081019050919050565b6000819050602082019050919050565b6000819050602082019050919050565b60008190508160005260206000209050919050565b600081519050919050565b600081519050919050565b600081519050919050565b600081519050919050565b6000602082019050919050565b6000602082019050919050565b600082825260208201905092915050565b600082825260208201905092915050565b600082825260208201905092915050565b600082825260208201905092915050565b600082825260208201905092915050565b600081905092915050565b600061357a82613694565b915061358583613694565b9250827fffffffffffffffffffffffffffffffffffffffffffffffffffffffffffffffff038211156135ba576135b96137bd565b5b828201905092915050565b60006135d082613694565b91506135db83613694565b9250826135eb576135ea6137ec565b5b828204905092915050565b600061360182613694565b915061360c83613694565b92508282101561361f5761361e6137bd565b5b828203905092915050565b600061363582613674565b9050919050565b60008115159050919050565b60007fffffffff0000000000000000000000000000000000000000000000000000000082169050919050565b600073ffffffffffffffffffffffffffffffffffffffff82169050919050565b6000819050919050565b82818337600083830152505050565b60005b838110156136cb5780820151818401526020810190506136b0565b838111156136da576000848401525b50505050565b600060028204905060018216806136f857607f821691505b6020821081141561370c5761370b61381b565b5b50919050565b61371b8261389b565b810181811067ffffffffffffffff8211171561373a5761373961384a565b5b80604052505050565b600061374e82613694565b91507fffffffffffffffffffffffffffffffffffffffffffffffffffffffffffffffff821415613781576137806137bd565b5b600182019050919050565b600061379782613694565b91506137a283613694565b9250826137b2576137b16137ec565b5b828206905092915050565b7f4e487b7100000000000000000000000000000000000000000000000000000000600052601160045260246000fd5b7f4e487b7100000000000000000000000000000000000000000000000000000000600052601260045260246000fd5b7f4e487b7100000000000000000000000000000000000000000000000000000000600052602260045260246000fd5b7f4e487b7100000000000000000000000000000000000000000000000000000000600052604160045260246000fd5b600060033d11156138985760046000803e6138956000516138ac565b90505b90565b6000601f19601f8301169050919050565b60007c010000000000000000000000000000000000000000000000000000000082049050919050565b7f455243313135353a207472616e7366657220746f206e6f6e204552433131353560008201527f526563656976657220696d706c656d656e746572000000000000000000000000602082015250565b7f455243313135353a2063616c6c6572206973206e6f7420746f6b656e206f776e60008201527f6572206e6f7220617070726f7665640000000000000000000000000000000000602082015250565b7f455243313135353a204552433131353552656365697665722072656a6563746560008201527f6420746f6b656e73000000000000000000000000000000000000000000000000602082015250565b7f4f776e61626c653a206e6577206f776e657220697320746865207a65726f206160008201527f6464726573730000000000000000000000000000000000000000000000000000602082015250565b7f455243313135353a2061646472657373207a65726f206973206e6f742061207660008201527f616c6964206f776e657200000000000000000000000000000000000000000000602082015250565b7f455243313135353a207472616e7366657220746f20746865207a65726f20616460008201527f6472657373000000000000000000000000000000000000000000000000000000602082015250565b7f455243313135353a20696e73756666696369656e742062616c616e636520666f60008201527f72207472616e7366657200000000000000000000000000000000000000000000602082015250565b7f2e6a736f6e000000000000000000000000000000000000000000000000000000600082015250565b7f4f776e61626c653a2063616c6c6572206973206e6f7420746865206f776e6572600082015250565b7f455243313135353a2073657474696e6720617070726f76616c2073746174757360008201527f20666f722073656c660000000000000000000000000000000000000000000000602082015250565b7f455243313135353a206163636f756e747320616e6420696473206c656e67746860008201527f206d69736d617463680000000000000000000000000000000000000000000000602082015250565b7f455243313135353a2069647320616e6420616d6f756e7473206c656e6774682060008201527f6d69736d61746368000000000000000000000000000000000000000000000000602082015250565b7f455243313135353a206d696e7420746f20746865207a65726f2061646472657360008201527f7300000000000000000000000000000000000000000000000000000000000000602082015250565b600060443d1015613c9c57613d1f565b613ca46133d0565b60043d036004823e80513d602482011167ffffffffffffffff82111715613ccc575050613d1f565b808201805167ffffffffffffffff811115613cea5750505050613d1f565b80602083010160043d038501811115613d07575050505050613d1f565b613d1682602001850186613712565b82955050505050505b90565b613d2b8161362a565b8114613d3657600080fd5b50565b613d428161363c565b8114613d4d57600080fd5b50565b613d5981613648565b8114613d6457600080fd5b50565b613d7081613694565b8114613d7b57600080fd5b5056fea2646970667358221220e62ccfcb776d8f632ad2b3337b191ae4ba5a464af45468fb0560fff281c1243164736f6c63430008040033",
  "immutableReferences": {},
  "source": "pragma solidity ^0.8.4;\r\n\r\nimport \"@openzeppelin/contracts/token/ERC1155/ERC1155.sol\";\r\nimport \"@openzeppelin/contracts/access/Ownable.sol\";\r\nimport \"@openzeppelin/contracts/utils/Strings.sol\";\r\n\r\ncontract ERC1155Token is ERC1155, Ownable {\r\n\r\n    string[] public names; //string array of names\r\n    uint[] public ids; //uint array of ids\r\n    string public baseMetadataURI; //the token metadata URI\r\n    string public name; //the token mame\r\n    uint public mintFee = 0 wei; //mintfee, 0 by default. only used in mint function, not batch.\r\n\r\n    mapping(string => uint) public nameToId; //name to id mapping\r\n    mapping(uint => string) public idToName; //id to name mapping\r\n\r\n    /*\r\n    constructor is executed when the factory contract calls its own deployERC1155 method\r\n    */\r\n    constructor(string memory _contractName, string memory _uri, string[] memory _names, uint[] memory _ids) ERC1155(_uri) {\r\n        names = _names;\r\n        ids = _ids;\r\n        createMapping();\r\n        setURI(_uri);\r\n        baseMetadataURI = _uri;\r\n        name = _contractName;\r\n        transferOwnership(tx.origin);\r\n    }\r\n\r\n    /*\r\n    creates a mapping of strings to ids (i.e [\"one\",\"two\"], [1,2] - \"one\" maps to 1, vice versa.)\r\n    */\r\n    function createMapping() private {\r\n        for (uint id = 0; id < ids.length; id++) {\r\n            nameToId[names[id]] = ids[id];\r\n            idToName[ids[id]] = names[id];\r\n        }\r\n    }\r\n    /*\r\n    sets our URI and makes the ERC1155 OpenSea compatible\r\n    */\r\n    function uri(uint256 _tokenid) override public view returns (string memory) {\r\n        return string(\r\n            abi.encodePacked(\r\n                baseMetadataURI,\r\n                Strings.toString(_tokenid),\".json\"\r\n            )\r\n        );\r\n    }\r\n\r\n    function getNames() public view returns(string[] memory) {\r\n        return names;\r\n    }\r\n\r\n    /*\r\n    used to change metadata, only owner access\r\n    */\r\n    function setURI(string memory newuri) public onlyOwner {\r\n        _setURI(newuri);\r\n    }\r\n\r\n    /*\r\n    set a mint fee. only used for mint, not batch.\r\n    */\r\n    function setFee(uint _fee) public onlyOwner {\r\n        mintFee = _fee;\r\n    }\r\n\r\n    /*\r\n    mint(address account, uint _id, uint256 amount)\r\n\r\n    account - address to mint the token to\r\n    _id - the ID being minted\r\n    amount - amount of tokens to mint\r\n    */\r\n    function mint(address account, uint _id, uint256 amount)\r\n    public payable returns (uint)\r\n    {\r\n        require(msg.value == mintFee);\r\n        _mint(account, _id, amount, \"\");\r\n        return _id;\r\n    }\r\n\r\n    /*\r\n    mintBatch(address to, uint256[] memory _ids, uint256[] memory amounts, bytes memory data)\r\n\r\n    to - address to mint the token to\r\n    _ids - the IDs being minted\r\n    amounts - amount of tokens to mint given ID\r\n    bytes - additional field to pass data to function\r\n    */\r\n    function mintBatch(address to, uint256[] memory _ids, uint256[] memory amounts, bytes memory data)\r\n    public\r\n    {\r\n        _mintBatch(to, _ids, amounts, data);\r\n    }\r\n}\r\n",
  "sourcePath": "C:\\Users\\Dean\\Desktop\\InteliJ\\1155_factory_exam\\contracts\\ERC1155Token.sol",
  "compiler": {
    "name": "solc",
    "version": "0.8.4+commit.c7e474f2.Emscripten.clang"
  },
  "schemaVersion": "3.4.9",
  "updatedAt": "2022-08-22T10:35:39.043Z",
  "devdoc": {
    "kind": "dev",
    "methods": {
      "balanceOf(address,uint256)": {
        "details": "See {IERC1155-balanceOf}. Requirements: - `account` cannot be the zero address."
      },
      "balanceOfBatch(address[],uint256[])": {
        "details": "See {IERC1155-balanceOfBatch}. Requirements: - `accounts` and `ids` must have the same length."
      },
      "isApprovedForAll(address,address)": {
        "details": "See {IERC1155-isApprovedForAll}."
      },
      "owner()": {
        "details": "Returns the address of the current owner."
      },
      "renounceOwnership()": {
        "details": "Leaves the contract without owner. It will not be possible to call `onlyOwner` functions anymore. Can only be called by the current owner. NOTE: Renouncing ownership will leave the contract without an owner, thereby removing any functionality that is only available to the owner."
      },
      "safeBatchTransferFrom(address,address,uint256[],uint256[],bytes)": {
        "details": "See {IERC1155-safeBatchTransferFrom}."
      },
      "safeTransferFrom(address,address,uint256,uint256,bytes)": {
        "details": "See {IERC1155-safeTransferFrom}."
      },
      "setApprovalForAll(address,bool)": {
        "details": "See {IERC1155-setApprovalForAll}."
      },
      "supportsInterface(bytes4)": {
        "details": "See {IERC165-supportsInterface}."
      },
      "transferOwnership(address)": {
        "details": "Transfers ownership of the contract to a new account (`newOwner`). Can only be called by the current owner."
      }
    },
    "version": 1
  },
  "userdoc": {
    "kind": "user",
    "methods": {},
    "version": 1
  }
}