{
  "contractName": "ERC1155TokenFactory",
  "abi": [
    {
      "inputs": [],
      "stateMutability": "nonpayable",
      "type": "constructor"
    },
    {
      "anonymous": false,
      "inputs": [
        {
          "indexed": false,
          "internalType": "address",
          "name": "owner",
          "type": "address"
        },
        {
          "indexed": false,
          "internalType": "address",
          "name": "tokenContract",
          "type": "address"
        }
      ],
      "name": "ERC1155Created",
      "type": "event"
    },
    {
      "anonymous": false,
      "inputs": [
        {
          "indexed": false,
          "internalType": "address",
          "name": "owner",
          "type": "address"
        },
        {
          "indexed": false,
          "internalType": "address",
          "name": "tokenContract",
          "type": "address"
        },
        {
          "indexed": false,
          "internalType": "uint256",
          "name": "amount",
          "type": "uint256"
        }
      ],
      "name": "ERC1155Minted",
      "type": "event"
    },
    {
      "inputs": [
        {
          "internalType": "uint256",
          "name": "",
          "type": "uint256"
        }
      ],
      "name": "indexToContract",
      "outputs": [
        {
          "internalType": "address",
          "name": "",
          "type": "address"
        }
      ],
      "stateMutability": "view",
      "type": "function",
      "constant": true
    },
    {
      "inputs": [
        {
          "internalType": "uint256",
          "name": "",
          "type": "uint256"
        }
      ],
      "name": "indexToOwner",
      "outputs": [
        {
          "internalType": "address",
          "name": "",
          "type": "address"
        }
      ],
      "stateMutability": "view",
      "type": "function",
      "constant": true
    },
    {
      "inputs": [
        {
          "internalType": "uint256",
          "name": "",
          "type": "uint256"
        }
      ],
      "name": "tokens",
      "outputs": [
        {
          "internalType": "contract ERC1155Token",
          "name": "",
          "type": "address"
        }
      ],
      "stateMutability": "view",
      "type": "function",
      "constant": true
    }
  ],
  "bytecode": "0x608060405234801561001057600080fd5b506102d7806100206000396000f3fe608060405234801561001057600080fd5b506004361061005e576000357c0100000000000000000000000000000000000000000000000000000000900480634f64b2be14610063578063ba535b8e14610093578063cd78aefb146100c3575b600080fd5b61007d600480360381019061007891906101ad565b6100f3565b60405161008a919061020f565b60405180910390f35b6100ad60048036038101906100a891906101ad565b610132565b6040516100ba91906101f4565b60405180910390f35b6100dd60048036038101906100d891906101ad565b610165565b6040516100ea91906101f4565b60405180910390f35b6000818154811061010357600080fd5b906000526020600020016000915054906101000a900473ffffffffffffffffffffffffffffffffffffffff1681565b60016020528060005260406000206000915054906101000a900473ffffffffffffffffffffffffffffffffffffffff1681565b60026020528060005260406000206000915054906101000a900473ffffffffffffffffffffffffffffffffffffffff1681565b6000813590506101a78161028a565b92915050565b6000602082840312156101bf57600080fd5b60006101cd84828501610198565b91505092915050565b6101df8161022a565b82525050565b6101ee81610266565b82525050565b600060208201905061020960008301846101d6565b92915050565b600060208201905061022460008301846101e5565b92915050565b60006102358261023c565b9050919050565b600073ffffffffffffffffffffffffffffffffffffffff82169050919050565b6000819050919050565b600061027182610278565b9050919050565b60006102838261023c565b9050919050565b6102938161025c565b811461029e57600080fd5b5056fea26469706673582212200610a795a77bc516fe29e395ed72396885ba5f5644414fc18837eaceed89af6964736f6c63430008040033",
  "immutableReferences": {},
  "source": "pragma solidity ^0.8.4;\r\n\r\nimport \"@openzeppelin/contracts/token/ERC1155/ERC1155.sol\";\r\nimport \"@openzeppelin/contracts/access/Ownable.sol\";\r\nimport \"@openzeppelin/contracts/utils/Strings.sol\";\r\n\r\ncontract ERC1155Token is ERC1155, Ownable {\r\n\r\n    string[] public names; //string array of names\r\n    uint[] public ids; //uint array of ids\r\n    string public baseMetadataURI; //the token metadata URI\r\n    string public name; //the token mame\r\n    uint public mintFee = 0 wei; //mintfee, 0 by default. only used in mint function, not batch.\r\n\r\n    mapping(string => uint) public nameToId; //name to id mapping\r\n    mapping(uint => string) public idToName; //id to name mapping\r\n\r\n    /*\r\n    constructor is executed when the factory contract calls its own deployERC1155 method\r\n    */\r\n    constructor(string memory _contractName, string memory _uri, string[] memory _names, uint[] memory _ids) ERC1155(_uri) {\r\n        names = _names;\r\n        ids = _ids;\r\n        createMapping();\r\n        setURI(_uri);\r\n        baseMetadataURI = _uri;\r\n        name = _contractName;\r\n        transferOwnership(tx.origin);\r\n    }\r\n\r\n    /*\r\n    creates a mapping of strings to ids (i.e [\"one\",\"two\"], [1,2] - \"one\" maps to 1, vice versa.)\r\n    */\r\n    function createMapping() private {\r\n        for (uint id = 0; id < ids.length; id++) {\r\n            nameToId[names[id]] = ids[id];\r\n            idToName[ids[id]] = names[id];\r\n        }\r\n    }\r\n    /*\r\n    sets our URI and makes the ERC1155 OpenSea compatible\r\n    */\r\n    function uri(uint256 _tokenid) override public view returns (string memory) {\r\n        return string(\r\n            abi.encodePacked(\r\n                baseMetadataURI,\r\n                Strings.toString(_tokenid),\".json\"\r\n            )\r\n        );\r\n    }\r\n\r\n    function getNames() public view returns(string[] memory) {\r\n        return names;\r\n    }\r\n\r\n    /*\r\n    used to change metadata, only owner access\r\n    */\r\n    function setURI(string memory newuri) public onlyOwner {\r\n        _setURI(newuri);\r\n    }\r\n\r\n    /*\r\n    set a mint fee. only used for mint, not batch.\r\n    */\r\n    function setFee(uint _fee) public onlyOwner {\r\n        mintFee = _fee;\r\n    }\r\n\r\n    /*\r\n    mint(address account, uint _id, uint256 amount)\r\n\r\n    account - address to mint the token to\r\n    _id - the ID being minted\r\n    amount - amount of tokens to mint\r\n    */\r\n    function mint(address account, uint _id, uint256 amount)\r\n    public payable returns (uint)\r\n    {\r\n        require(msg.value == mintFee);\r\n        _mint(account, _id, amount, \"\");\r\n        return _id;\r\n    }\r\n\r\n    /*\r\n    mintBatch(address to, uint256[] memory _ids, uint256[] memory amounts, bytes memory data)\r\n\r\n    to - address to mint the token to\r\n    _ids - the IDs being minted\r\n    amounts - amount of tokens to mint given ID\r\n    bytes - additional field to pass data to function\r\n    */\r\n    function mintBatch(address to, uint256[] memory _ids, uint256[] memory amounts, bytes memory data)\r\n    public\r\n    {\r\n        _mintBatch(to, _ids, amounts, data);\r\n    }\r\n}\r\n\r\ncontract ERC1155TokenFactory {\r\n\r\n    constructor (){}\r\n\r\n    ERC1155Token[] public tokens; //an array that contains different ERC1155 tokens deployed\r\n    mapping(uint256 => address) public indexToContract; //index to contract address mapping\r\n    mapping(uint256 => address) public indexToOwner; //index to ERC1155 owner address\r\n\r\n    event ERC1155Created(address owner, address tokenContract); //emitted when ERC1155 token is deployed\r\n    event ERC1155Minted(address owner, address tokenContract, uint amount); //emmited when ERC1155 token is minted\r\n\r\n//    function deployERC1155(string memory _contractName, string memory _uri, uint[] memory _ids, string[] memory _names) external {\r\n//        ERC1155Token t = new ERC1155Token(_contractName, _uri, _names, _ids);\r\n//        tokens.push(t);\r\n//        indexToContract[tokens.length - 1] = address(t);\r\n//        indexToOwner[tokens.length - 1] = tx.origin;\r\n//        emit ERC1155Created(msg.sender, address(t));\r\n//        return address(t);\r\n//    }\r\n\r\n//    function mintERC1155(uint _index, string memory _name, uint256 amount) public {\r\n//        uint id = getIdByName(_index, _name);\r\n//        tokens[_index].mint(indexToOwner[_index], id, amount);\r\n//        emit ERC1155Minted(tokens[_index].owner(), address(tokens[_index]), amount);\r\n//    }\r\n\r\n    //    function getCountERC1155byIndex(uint256 _index, uint256 _id) public view returns (uint amount) {\r\n    //        return tokens[_index].balanceOf(indexToOwner[_index], _id);\r\n    //    }\r\n    //\r\n    //    function getCountERC1155byName(uint256 _index, string calldata _name) public view returns (uint amount) {\r\n    //        uint id = getIdByName(_index, _name);\r\n    //        return tokens[_index].balanceOf(indexToOwner[_index], id);\r\n    //    }\r\n    //\r\n//        function getIdByName(uint _index, string memory _name) public view returns (uint) {\r\n//            return tokens[_index].nameToId(_name);\r\n//        }\r\n    //\r\n    //    function getNameById(uint _index, uint _id) public view returns (string memory) {\r\n    //        return tokens[_index].idToName(_id);\r\n    //    }\r\n    //\r\n    //    function getERC1155byIndexAndId(uint _index, uint _id)\r\n    //    public\r\n    //    view\r\n    //    returns (\r\n    //        address _contract,\r\n    //        address _owner,\r\n    //        string memory _uri,\r\n    //        uint supply\r\n    //    )\r\n    //    {\r\n    //        ERC1155Token token = tokens[_index];\r\n    //        return (address(token), token.owner(), token.uri(_id), token.balanceOf(indexToOwner[_index], _id));\r\n    //    }\r\n}",
  "sourcePath": "C:\\Users\\Dean\\Desktop\\InteliJ\\1155_factory_exam\\contracts\\ERC1155TokenFactory.sol",
  "compiler": {
    "name": "solc",
    "version": "0.8.4+commit.c7e474f2.Emscripten.clang"
  },
  "schemaVersion": "3.4.9",
  "updatedAt": "2022-08-22T07:47:53.603Z",
  "networkType": "ethereum",
  "devdoc": {
    "kind": "dev",
    "methods": {},
    "version": 1
  },
  "userdoc": {
    "kind": "user",
    "methods": {},
    "version": 1
  }
}